{
  "_format": "hh-sol-artifact-1",
  "contractName": "ERC1155Core",
  "sourceName": "contracts/ERC1155Core.sol",
  "abi": [
    {
      "inputs": [
        {
          "internalType": "string",
          "name": "uri_",
          "type": "string"
        }
      ],
      "stateMutability": "nonpayable",
      "type": "constructor"
    },
    {
      "inputs": [
        {
          "internalType": "address",
          "name": "msgSender",
          "type": "address"
        }
      ],
      "name": "ERC1155Core_CallerIsNotIssuerOrItself",
      "type": "error"
    },
    {
      "inputs": [
        {
          "internalType": "address",
          "name": "sender",
          "type": "address"
        },
        {
          "internalType": "uint256",
          "name": "balance",
          "type": "uint256"
        },
        {
          "internalType": "uint256",
          "name": "needed",
          "type": "uint256"
        },
        {
          "internalType": "uint256",
          "name": "tokenId",
          "type": "uint256"
        }
      ],
      "name": "ERC1155InsufficientBalance",
      "type": "error"
    },
    {
      "inputs": [
        {
          "internalType": "address",
          "name": "approver",
          "type": "address"
        }
      ],
      "name": "ERC1155InvalidApprover",
      "type": "error"
    },
    {
      "inputs": [
        {
          "internalType": "uint256",
          "name": "idsLength",
          "type": "uint256"
        },
        {
          "internalType": "uint256",
          "name": "valuesLength",
          "type": "uint256"
        }
      ],
      "name": "ERC1155InvalidArrayLength",
      "type": "error"
    },
    {
      "inputs": [
        {
          "internalType": "address",
          "name": "operator",
          "type": "address"
        }
      ],
      "name": "ERC1155InvalidOperator",
      "type": "error"
    },
    {
      "inputs": [
        {
          "internalType": "address",
          "name": "receiver",
          "type": "address"
        }
      ],
      "name": "ERC1155InvalidReceiver",
      "type": "error"
    },
    {
      "inputs": [
        {
          "internalType": "address",
          "name": "sender",
          "type": "address"
        }
      ],
      "name": "ERC1155InvalidSender",
      "type": "error"
    },
    {
      "inputs": [
        {
          "internalType": "address",
          "name": "operator",
          "type": "address"
        },
        {
          "internalType": "address",
          "name": "owner",
          "type": "address"
        }
      ],
      "name": "ERC1155MissingApprovalForAll",
      "type": "error"
    },
    {
      "anonymous": false,
      "inputs": [
        {
          "indexed": true,
          "internalType": "address",
          "name": "account",
          "type": "address"
        },
        {
          "indexed": true,
          "internalType": "address",
          "name": "operator",
          "type": "address"
        },
        {
          "indexed": false,
          "internalType": "bool",
          "name": "approved",
          "type": "bool"
        }
      ],
      "name": "ApprovalForAll",
      "type": "event"
    },
    {
      "anonymous": false,
      "inputs": [
        {
          "indexed": true,
          "internalType": "address",
          "name": "from",
          "type": "address"
        },
        {
          "indexed": true,
          "internalType": "address",
          "name": "to",
          "type": "address"
        }
      ],
      "name": "OwnershipTransferRequested",
      "type": "event"
    },
    {
      "anonymous": false,
      "inputs": [
        {
          "indexed": true,
          "internalType": "address",
          "name": "from",
          "type": "address"
        },
        {
          "indexed": true,
          "internalType": "address",
          "name": "to",
          "type": "address"
        }
      ],
      "name": "OwnershipTransferred",
      "type": "event"
    },
    {
      "anonymous": false,
      "inputs": [
        {
          "indexed": true,
          "internalType": "address",
          "name": "issuer",
          "type": "address"
        }
      ],
      "name": "SetIssuer",
      "type": "event"
    },
    {
      "anonymous": false,
      "inputs": [
        {
          "indexed": true,
          "internalType": "address",
          "name": "operator",
          "type": "address"
        },
        {
          "indexed": true,
          "internalType": "address",
          "name": "from",
          "type": "address"
        },
        {
          "indexed": true,
          "internalType": "address",
          "name": "to",
          "type": "address"
        },
        {
          "indexed": false,
          "internalType": "uint256[]",
          "name": "ids",
          "type": "uint256[]"
        },
        {
          "indexed": false,
          "internalType": "uint256[]",
          "name": "values",
          "type": "uint256[]"
        }
      ],
      "name": "TransferBatch",
      "type": "event"
    },
    {
      "anonymous": false,
      "inputs": [
        {
          "indexed": true,
          "internalType": "address",
          "name": "operator",
          "type": "address"
        },
        {
          "indexed": true,
          "internalType": "address",
          "name": "from",
          "type": "address"
        },
        {
          "indexed": true,
          "internalType": "address",
          "name": "to",
          "type": "address"
        },
        {
          "indexed": false,
          "internalType": "uint256",
          "name": "id",
          "type": "uint256"
        },
        {
          "indexed": false,
          "internalType": "uint256",
          "name": "value",
          "type": "uint256"
        }
      ],
      "name": "TransferSingle",
      "type": "event"
    },
    {
      "anonymous": false,
      "inputs": [
        {
          "indexed": false,
          "internalType": "string",
          "name": "value",
          "type": "string"
        },
        {
          "indexed": true,
          "internalType": "uint256",
          "name": "id",
          "type": "uint256"
        }
      ],
      "name": "URI",
      "type": "event"
    },
    {
      "inputs": [],
      "name": "acceptOwnership",
      "outputs": [],
      "stateMutability": "nonpayable",
      "type": "function"
    },
    {
      "inputs": [
        {
          "internalType": "address",
          "name": "account",
          "type": "address"
        },
        {
          "internalType": "uint256",
          "name": "id",
          "type": "uint256"
        }
      ],
      "name": "balanceOf",
      "outputs": [
        {
          "internalType": "uint256",
          "name": "",
          "type": "uint256"
        }
      ],
      "stateMutability": "view",
      "type": "function"
    },
    {
      "inputs": [
        {
          "internalType": "address[]",
          "name": "accounts",
          "type": "address[]"
        },
        {
          "internalType": "uint256[]",
          "name": "ids",
          "type": "uint256[]"
        }
      ],
      "name": "balanceOfBatch",
      "outputs": [
        {
          "internalType": "uint256[]",
          "name": "",
          "type": "uint256[]"
        }
      ],
      "stateMutability": "view",
      "type": "function"
    },
    {
      "inputs": [
        {
          "internalType": "address",
          "name": "account",
          "type": "address"
        },
        {
          "internalType": "uint256",
          "name": "id",
          "type": "uint256"
        },
        {
          "internalType": "uint256",
          "name": "amount",
          "type": "uint256"
        }
      ],
      "name": "burn",
      "outputs": [],
      "stateMutability": "nonpayable",
      "type": "function"
    },
    {
      "inputs": [
        {
          "internalType": "address",
          "name": "account",
          "type": "address"
        },
        {
          "internalType": "uint256[]",
          "name": "ids",
          "type": "uint256[]"
        },
        {
          "internalType": "uint256[]",
          "name": "amounts",
          "type": "uint256[]"
        }
      ],
      "name": "burnBatch",
      "outputs": [],
      "stateMutability": "nonpayable",
      "type": "function"
    },
    {
      "inputs": [
        {
          "internalType": "uint256",
          "name": "id",
          "type": "uint256"
        }
      ],
      "name": "exists",
      "outputs": [
        {
          "internalType": "bool",
          "name": "",
          "type": "bool"
        }
      ],
      "stateMutability": "view",
      "type": "function"
    },
    {
      "inputs": [
        {
          "internalType": "address",
          "name": "account",
          "type": "address"
        },
        {
          "internalType": "address",
          "name": "operator",
          "type": "address"
        }
      ],
      "name": "isApprovedForAll",
      "outputs": [
        {
          "internalType": "bool",
          "name": "",
          "type": "bool"
        }
      ],
      "stateMutability": "view",
      "type": "function"
    },
    {
      "inputs": [
        {
          "internalType": "address",
          "name": "_to",
          "type": "address"
        },
        {
          "internalType": "uint256",
          "name": "_id",
          "type": "uint256"
        },
        {
          "internalType": "uint256",
          "name": "_amount",
          "type": "uint256"
        },
        {
          "internalType": "bytes",
          "name": "_data",
          "type": "bytes"
        },
        {
          "internalType": "string",
          "name": "_tokenUri",
          "type": "string"
        }
      ],
      "name": "mint",
      "outputs": [],
      "stateMutability": "nonpayable",
      "type": "function"
    },
    {
      "inputs": [
        {
          "internalType": "address",
          "name": "_to",
          "type": "address"
        },
        {
          "internalType": "uint256[]",
          "name": "_ids",
          "type": "uint256[]"
        },
        {
          "internalType": "uint256[]",
          "name": "_amounts",
          "type": "uint256[]"
        },
        {
          "internalType": "bytes",
          "name": "_data",
          "type": "bytes"
        },
        {
          "internalType": "string[]",
          "name": "_tokenUris",
          "type": "string[]"
        }
      ],
      "name": "mintBatch",
      "outputs": [],
      "stateMutability": "nonpayable",
      "type": "function"
    },
    {
      "inputs": [],
      "name": "owner",
      "outputs": [
        {
          "internalType": "address",
          "name": "",
          "type": "address"
        }
      ],
      "stateMutability": "view",
      "type": "function"
    },
    {
      "inputs": [
        {
          "internalType": "address",
          "name": "from",
          "type": "address"
        },
        {
          "internalType": "address",
          "name": "to",
          "type": "address"
        },
        {
          "internalType": "uint256[]",
          "name": "ids",
          "type": "uint256[]"
        },
        {
          "internalType": "uint256[]",
          "name": "values",
          "type": "uint256[]"
        },
        {
          "internalType": "bytes",
          "name": "data",
          "type": "bytes"
        }
      ],
      "name": "safeBatchTransferFrom",
      "outputs": [],
      "stateMutability": "nonpayable",
      "type": "function"
    },
    {
      "inputs": [
        {
          "internalType": "address",
          "name": "from",
          "type": "address"
        },
        {
          "internalType": "address",
          "name": "to",
          "type": "address"
        },
        {
          "internalType": "uint256",
          "name": "id",
          "type": "uint256"
        },
        {
          "internalType": "uint256",
          "name": "value",
          "type": "uint256"
        },
        {
          "internalType": "bytes",
          "name": "data",
          "type": "bytes"
        }
      ],
      "name": "safeTransferFrom",
      "outputs": [],
      "stateMutability": "nonpayable",
      "type": "function"
    },
    {
      "inputs": [
        {
          "internalType": "address",
          "name": "operator",
          "type": "address"
        },
        {
          "internalType": "bool",
          "name": "approved",
          "type": "bool"
        }
      ],
      "name": "setApprovalForAll",
      "outputs": [],
      "stateMutability": "nonpayable",
      "type": "function"
    },
    {
      "inputs": [
        {
          "internalType": "address",
          "name": "_issuer",
          "type": "address"
        }
      ],
      "name": "setIssuer",
      "outputs": [],
      "stateMutability": "nonpayable",
      "type": "function"
    },
    {
      "inputs": [
        {
          "internalType": "bytes4",
          "name": "interfaceId",
          "type": "bytes4"
        }
      ],
      "name": "supportsInterface",
      "outputs": [
        {
          "internalType": "bool",
          "name": "",
          "type": "bool"
        }
      ],
      "stateMutability": "view",
      "type": "function"
    },
    {
      "inputs": [],
      "name": "totalSupply",
      "outputs": [
        {
          "internalType": "uint256",
          "name": "",
          "type": "uint256"
        }
      ],
      "stateMutability": "view",
      "type": "function"
    },
    {
      "inputs": [
        {
          "internalType": "uint256",
          "name": "id",
          "type": "uint256"
        }
      ],
      "name": "totalSupply",
      "outputs": [
        {
          "internalType": "uint256",
          "name": "",
          "type": "uint256"
        }
      ],
      "stateMutability": "view",
      "type": "function"
    },
    {
      "inputs": [
        {
          "internalType": "address",
          "name": "to",
          "type": "address"
        }
      ],
      "name": "transferOwnership",
      "outputs": [],
      "stateMutability": "nonpayable",
      "type": "function"
    },
    {
      "inputs": [
        {
          "internalType": "uint256",
          "name": "tokenId",
          "type": "uint256"
        }
      ],
      "name": "uri",
      "outputs": [
        {
          "internalType": "string",
          "name": "",
          "type": "string"
        }
      ],
      "stateMutability": "view",
      "type": "function"
    }
  ],
  "bytecode": "0x60806040523480156200001157600080fd5b50604051620020d3380380620020d38339810160408190526200003491620001b2565b33806000836200004481620000de565b506001600160a01b038216620000a15760405162461bcd60e51b815260206004820152601860248201527f43616e6e6f7420736574206f776e657220746f207a65726f000000000000000060448201526064015b60405180910390fd5b600580546001600160a01b0319166001600160a01b0384811691909117909155811615620000d457620000d481620000f0565b50505050620003e4565b6002620000ec828262000318565b5050565b336001600160a01b038216036200014a5760405162461bcd60e51b815260206004820152601760248201527f43616e6e6f74207472616e7366657220746f2073656c66000000000000000000604482015260640162000098565b600680546001600160a01b0319166001600160a01b03838116918217909255600554604051919216907fed8889f560326eb138920d842192f0eb3dd22b4f139c87a2c57538e05bae127890600090a350565b634e487b7160e01b600052604160045260246000fd5b60006020808385031215620001c657600080fd5b82516001600160401b0380821115620001de57600080fd5b818501915085601f830112620001f357600080fd5b8151818111156200020857620002086200019c565b604051601f8201601f19908116603f011681019083821181831017156200023357620002336200019c565b8160405282815288868487010111156200024c57600080fd5b600093505b8284101562000270578484018601518185018701529285019262000251565b600086848301015280965050505050505092915050565b600181811c908216806200029c57607f821691505b602082108103620002bd57634e487b7160e01b600052602260045260246000fd5b50919050565b601f82111562000313576000816000526020600020601f850160051c81016020861015620002ee5750805b601f850160051c820191505b818110156200030f57828155600101620002fa565b5050505b505050565b81516001600160401b038111156200033457620003346200019c565b6200034c8162000345845462000287565b84620002c3565b602080601f8311600181146200038457600084156200036b5750858301515b600019600386901b1c1916600185901b1785556200030f565b600085815260208120601f198616915b82811015620003b55788860151825594840194600190910190840162000394565b5085821015620003d45787850151600019600388901b60f8161c191681555b5050505050600190811b01905550565b611cdf80620003f46000396000f3fe608060405234801561001057600080fd5b50600436106101205760003560e01c806379ba5097116100ad578063c1341c4f11610071578063c1341c4f1461027c578063e985e9c51461028f578063f242432a146102a2578063f2fde38b146102b5578063f5298aca146102c857600080fd5b806379ba5097146102135780638da5cb5b1461021b578063a22cb46514610236578063b942f8cb14610249578063bd85b0391461025c57600080fd5b80632eb2c2d6116100f45780632eb2c2d6146101965780634e1273f4146101ab5780634f558e79146101cb57806355cc4e57146101ed5780636b20c4541461020057600080fd5b8062fdd58e1461012557806301ffc9a71461014b5780630e89341c1461016e57806318160ddd1461018e575b600080fd5b610138610133366004611350565b6102db565b6040519081526020015b60405180910390f35b61015e610159366004611390565b610303565b6040519015158152602001610142565b61018161017c3660046113ad565b610353565b604051610142919061140c565b600454610138565b6101a96101a4366004611569565b610411565b005b6101be6101b9366004611613565b61047d565b604051610142919061170f565b61015e6101d93660046113ad565b600090815260036020526040902054151590565b6101a96101fb366004611722565b61054a565b6101a961020e36600461173d565b61059c565b6101a961063b565b6005546040516001600160a01b039091168152602001610142565b6101a96102443660046117b1565b6106e9565b6101a96102573660046117ed565b6106f8565b61013861026a3660046113ad565b60009081526003602052604090205490565b6101a961028a36600461191f565b6107a6565b61015e61029d366004611977565b610805565b6101a96102b03660046119aa565b610833565b6101a96102c3366004611722565b610892565b6101a96102d6366004611a0f565b6108a6565b6000818152602081815260408083206001600160a01b03861684529091529020545b92915050565b60006001600160e01b03198216636cdb3d1360e11b148061033457506001600160e01b031982166303a24d0760e21b145b806102fd57506301ffc9a760e01b6001600160e01b03198316146102fd565b60008181526008602052604081208054606092919061037190611a42565b80601f016020809104026020016040519081016040528092919081815260200182805461039d90611a42565b80156103ea5780601f106103bf576101008083540402835291602001916103ea565b820191906000526020600020905b8154815290600101906020018083116103cd57829003601f168201915b5050505050905060008151116104085761040383610917565b61040a565b805b9392505050565b336001600160a01b038616811480159061043257506104308682610805565b155b156104685760405163711bec9160e11b81526001600160a01b038083166004830152871660248201526044015b60405180910390fd5b61047586868686866109ab565b505050505050565b606081518351146104ae5781518351604051635b05999160e01b81526004810192909252602482015260440161045f565b6000835167ffffffffffffffff8111156104ca576104ca61141f565b6040519080825280602002602001820160405280156104f3578160200160208202803683370190505b50905060005b84518110156105425760208082028601015161051d906020808402870101516102db565b82828151811061052f5761052f611a7c565b60209081029190910101526001016104f9565b509392505050565b610552610a12565b600780546001600160a01b0319166001600160a01b0383169081179091556040517fd56ed7b1c1110348b1fbf418469f6fc4acc32d9b675e9e1e448cc19169a64ca090600090a250565b3330148015906105b757506007546001600160a01b03163314155b156105d757604051637725137960e11b815233600482015260240161045f565b6001600160a01b03831633148015906105f757506105f58333610805565b155b1561062b57335b60405163711bec9160e11b81526001600160a01b039182166004820152908416602482015260440161045f565b610636838383610a67565b505050565b6006546001600160a01b0316331461068e5760405162461bcd60e51b815260206004820152601660248201527526bab9ba10313290383937b837b9b2b21037bbb732b960511b604482015260640161045f565b600580546001600160a01b0319808216339081179093556006805490911690556040516001600160a01b03909116919082907f8be0079c531659141344cd1fd0a4f28419497f9722a3daafe3b4186f6b6457e090600090a350565b6106f4338383610aad565b5050565b33301480159061071357506007546001600160a01b03163314155b1561073357604051637725137960e11b815233600482015260240161045f565b61073f85858585610b43565b60005b84518110156104755781818151811061075d5761075d611a7c565b60200260200101516008600087848151811061077b5761077b611a7c565b60200260200101518152602001908152602001600020908161079d9190611ada565b50600101610742565b3330148015906107c157506007546001600160a01b03163314155b156107e157604051637725137960e11b815233600482015260240161045f565b6107ed85858585610b81565b60008481526008602052604090206104758282611ada565b6001600160a01b03918216600090815260016020908152604080832093909416825291909152205460ff1690565b336001600160a01b038616811480159061085457506108528682610805565b155b156108855760405163711bec9160e11b81526001600160a01b0380831660048301528716602482015260440161045f565b6104758686868686610bde565b61089a610a12565b6108a381610c6c565b50565b3330148015906108c157506007546001600160a01b03163314155b156108e157604051637725137960e11b815233600482015260240161045f565b6001600160a01b038316331480159061090157506108ff8333610805565b155b1561090c57336105fe565b610636838383610d16565b60606002805461092690611a42565b80601f016020809104026020016040519081016040528092919081815260200182805461095290611a42565b801561099f5780601f106109745761010080835404028352916020019161099f565b820191906000526020600020905b81548152906001019060200180831161098257829003601f168201915b50505050509050919050565b6001600160a01b0384166109d557604051632bfa23e760e11b81526000600482015260240161045f565b6001600160a01b0385166109fe57604051626a0d4560e21b81526000600482015260240161045f565b610a0b8585858585610d7a565b5050505050565b6005546001600160a01b03163314610a655760405162461bcd60e51b815260206004820152601660248201527527b7363c9031b0b63630b1363290313c9037bbb732b960511b604482015260640161045f565b565b6001600160a01b038316610a9057604051626a0d4560e21b81526000600482015260240161045f565b610636836000848460405180602001604052806000815250610d7a565b6001600160a01b038216610ad65760405162ced3e160e81b81526000600482015260240161045f565b6001600160a01b03838116600081815260016020908152604080832094871680845294825291829020805460ff191686151590811790915591519182527f17307eab39ab6107e8899845ad3d59bd9653f200f220920489ca2b5937696c31910160405180910390a3505050565b6001600160a01b038416610b6d57604051632bfa23e760e11b81526000600482015260240161045f565b610b7b600085858585610d7a565b50505050565b6001600160a01b038416610bab57604051632bfa23e760e11b81526000600482015260240161045f565b60408051600180825260208201869052818301908152606082018590526080820190925290610475600087848487610d7a565b6001600160a01b038416610c0857604051632bfa23e760e11b81526000600482015260240161045f565b6001600160a01b038516610c3157604051626a0d4560e21b81526000600482015260240161045f565b60408051600180825260208201869052818301908152606082018590526080820190925290610c638787848487610d7a565b50505050505050565b336001600160a01b03821603610cc45760405162461bcd60e51b815260206004820152601760248201527f43616e6e6f74207472616e7366657220746f2073656c66000000000000000000604482015260640161045f565b600680546001600160a01b0319166001600160a01b03838116918217909255600554604051919216907fed8889f560326eb138920d842192f0eb3dd22b4f139c87a2c57538e05bae127890600090a350565b6001600160a01b038316610d3f57604051626a0d4560e21b81526000600482015260240161045f565b604080516001808252602082018590528183019081526060820184905260a08201909252600060808201818152919291610a0b918791859085905b610d8685858585610dcd565b6001600160a01b03841615610a0b5782513390600103610dbf5760208481015190840151610db8838989858589610f13565b5050610475565b610475818787878787611037565b610dd984848484611120565b6001600160a01b038416610e83576000805b8351811015610e69576000838281518110610e0857610e08611a7c565b602002602001015190508060036000878581518110610e2957610e29611a7c565b602002602001015181526020019081526020016000206000828254610e4e9190611b9a565b90915550610e5e90508184611b9a565b925050600101610deb565b508060046000828254610e7c9190611b9a565b9091555050505b6001600160a01b038316610b7b576000805b8351811015610f02576000838281518110610eb257610eb2611a7c565b602002602001015190508060036000878581518110610ed357610ed3611a7c565b602090810291909101810151825281019190915260400160002080549190910390559190910190600101610e95565b506004805491909103905550505050565b6001600160a01b0384163b156104755760405163f23a6e6160e01b81526001600160a01b0385169063f23a6e6190610f579089908990889088908890600401611bbb565b6020604051808303816000875af1925050508015610f92575060408051601f3d908101601f19168201909252610f8f91810190611c00565b60015b610ffb573d808015610fc0576040519150601f19603f3d011682016040523d82523d6000602084013e610fc5565b606091505b508051600003610ff357604051632bfa23e760e11b81526001600160a01b038616600482015260240161045f565b805181602001fd5b6001600160e01b0319811663f23a6e6160e01b14610c6357604051632bfa23e760e11b81526001600160a01b038616600482015260240161045f565b6001600160a01b0384163b156104755760405163bc197c8160e01b81526001600160a01b0385169063bc197c819061107b9089908990889088908890600401611c1d565b6020604051808303816000875af19250505080156110b6575060408051601f3d908101601f191682019092526110b391810190611c00565b60015b6110e4573d808015610fc0576040519150601f19603f3d011682016040523d82523d6000602084013e610fc5565b6001600160e01b0319811663bc197c8160e01b14610c6357604051632bfa23e760e11b81526001600160a01b038616600482015260240161045f565b805182511461114f5781518151604051635b05999160e01b81526004810192909252602482015260440161045f565b3360005b8351811015611255576020818102858101820151908501909101516001600160a01b03881615611206576000828152602081815260408083206001600160a01b038c168452909152902054818110156111df576040516303dee4c560e01b81526001600160a01b038a16600482015260248101829052604481018390526064810184905260840161045f565b6000838152602081815260408083206001600160a01b038d16845290915290209082900390555b6001600160a01b0387161561124b576000828152602081815260408083206001600160a01b038b16845290915281208054839290611245908490611b9a565b90915550505b5050600101611153565b5082516001036112d65760208301516000906020840151909150856001600160a01b0316876001600160a01b0316846001600160a01b03167fc3d58168c5ae7397731d063d5bbf3d657854427343f4c083240f7aacaa2d0f6285856040516112c7929190918252602082015260400190565b60405180910390a45050610a0b565b836001600160a01b0316856001600160a01b0316826001600160a01b03167f4a39dc06d4c0dbc64b70af90fd698a233a518aa5d07e595d983b8c0526c8f7fb8686604051611325929190611c7b565b60405180910390a45050505050565b80356001600160a01b038116811461134b57600080fd5b919050565b6000806040838503121561136357600080fd5b61136c83611334565b946020939093013593505050565b6001600160e01b0319811681146108a357600080fd5b6000602082840312156113a257600080fd5b813561040a8161137a565b6000602082840312156113bf57600080fd5b5035919050565b6000815180845260005b818110156113ec576020818501810151868301820152016113d0565b506000602082860101526020601f19601f83011685010191505092915050565b60208152600061040a60208301846113c6565b634e487b7160e01b600052604160045260246000fd5b604051601f8201601f1916810167ffffffffffffffff8111828210171561145e5761145e61141f565b604052919050565b600067ffffffffffffffff8211156114805761148061141f565b5060051b60200190565b600082601f83011261149b57600080fd5b813560206114b06114ab83611466565b611435565b8083825260208201915060208460051b8701019350868411156114d257600080fd5b602086015b848110156114ee57803583529183019183016114d7565b509695505050505050565b600082601f83011261150a57600080fd5b813567ffffffffffffffff8111156115245761152461141f565b611537601f8201601f1916602001611435565b81815284602083860101111561154c57600080fd5b816020850160208301376000918101602001919091529392505050565b600080600080600060a0868803121561158157600080fd5b61158a86611334565b945061159860208701611334565b9350604086013567ffffffffffffffff808211156115b557600080fd5b6115c189838a0161148a565b945060608801359150808211156115d757600080fd5b6115e389838a0161148a565b935060808801359150808211156115f957600080fd5b50611606888289016114f9565b9150509295509295909350565b6000806040838503121561162657600080fd5b823567ffffffffffffffff8082111561163e57600080fd5b818501915085601f83011261165257600080fd5b813560206116626114ab83611466565b82815260059290921b8401810191818101908984111561168157600080fd5b948201945b838610156116a65761169786611334565b82529482019490820190611686565b965050860135925050808211156116bc57600080fd5b506116c98582860161148a565b9150509250929050565b60008151808452602080850194506020840160005b83811015611704578151875295820195908201906001016116e8565b509495945050505050565b60208152600061040a60208301846116d3565b60006020828403121561173457600080fd5b61040a82611334565b60008060006060848603121561175257600080fd5b61175b84611334565b9250602084013567ffffffffffffffff8082111561177857600080fd5b6117848783880161148a565b9350604086013591508082111561179a57600080fd5b506117a78682870161148a565b9150509250925092565b600080604083850312156117c457600080fd5b6117cd83611334565b9150602083013580151581146117e257600080fd5b809150509250929050565b600080600080600060a0868803121561180557600080fd5b61180e86611334565b945060208087013567ffffffffffffffff8082111561182c57600080fd5b6118388a838b0161148a565b9650604089013591508082111561184e57600080fd5b61185a8a838b0161148a565b9550606089013591508082111561187057600080fd5b61187c8a838b016114f9565b9450608089013591508082111561189257600080fd5b818901915089601f8301126118a657600080fd5b81356118b46114ab82611466565b81815260059190911b8301840190848101908c8311156118d357600080fd5b8585015b8381101561190b578035858111156118ef5760008081fd5b6118fd8f89838a01016114f9565b8452509186019186016118d7565b508096505050505050509295509295909350565b600080600080600060a0868803121561193757600080fd5b61194086611334565b94506020860135935060408601359250606086013567ffffffffffffffff8082111561196b57600080fd5b6115e389838a016114f9565b6000806040838503121561198a57600080fd5b61199383611334565b91506119a160208401611334565b90509250929050565b600080600080600060a086880312156119c257600080fd5b6119cb86611334565b94506119d960208701611334565b93506040860135925060608601359150608086013567ffffffffffffffff811115611a0357600080fd5b611606888289016114f9565b600080600060608486031215611a2457600080fd5b611a2d84611334565b95602085013595506040909401359392505050565b600181811c90821680611a5657607f821691505b602082108103611a7657634e487b7160e01b600052602260045260246000fd5b50919050565b634e487b7160e01b600052603260045260246000fd5b601f821115610636576000816000526020600020601f850160051c81016020861015611abb5750805b601f850160051c820191505b8181101561047557828155600101611ac7565b815167ffffffffffffffff811115611af457611af461141f565b611b0881611b028454611a42565b84611a92565b602080601f831160018114611b3d5760008415611b255750858301515b600019600386901b1c1916600185901b178555610475565b600085815260208120601f198616915b82811015611b6c57888601518255948401946001909101908401611b4d565b5085821015611b8a5787850151600019600388901b60f8161c191681555b5050505050600190811b01905550565b808201808211156102fd57634e487b7160e01b600052601160045260246000fd5b6001600160a01b03868116825285166020820152604081018490526060810183905260a060808201819052600090611bf5908301846113c6565b979650505050505050565b600060208284031215611c1257600080fd5b815161040a8161137a565b6001600160a01b0386811682528516602082015260a060408201819052600090611c49908301866116d3565b8281036060840152611c5b81866116d3565b90508281036080840152611c6f81856113c6565b98975050505050505050565b604081526000611c8e60408301856116d3565b8281036020840152611ca081856116d3565b9594505050505056fea26469706673582212206c714f69b9a271bfc02bcbb1ebb35ee9f88ba987e17be76855486bb95e0417e964736f6c63430008180033",
  "linkReferences": {},
  "deployedLinkReferences": {}
}