{
  "_format": "hh-sol-artifact-1",
  "contractName": "Withdraw",
  "sourceName": "contracts/utils/Withdraw.sol",
  "abi": [
    {
      "inputs": [
        {
          "internalType": "address",
          "name": "target",
          "type": "address"
        }
      ],
      "name": "AddressEmptyCode",
      "type": "error"
    },
    {
      "inputs": [
        {
          "internalType": "address",
          "name": "account",
          "type": "address"
        }
      ],
      "name": "AddressInsufficientBalance",
      "type": "error"
    },
    {
      "inputs": [],
      "name": "FailedInnerCall",
      "type": "error"
    },
    {
      "inputs": [
        {
          "internalType": "address",
          "name": "owner",
          "type": "address"
        },
        {
          "internalType": "address",
          "name": "target",
          "type": "address"
        },
        {
          "internalType": "uint256",
          "name": "value",
          "type": "uint256"
        }
      ],
      "name": "FailedToWithdrawEth",
      "type": "error"
    },
    {
      "inputs": [],
      "name": "NothingToWithdraw",
      "type": "error"
    },
    {
      "inputs": [
        {
          "internalType": "address",
          "name": "token",
          "type": "address"
        }
      ],
      "name": "SafeERC20FailedOperation",
      "type": "error"
    },
    {
      "anonymous": false,
      "inputs": [
        {
          "indexed": true,
          "internalType": "address",
          "name": "from",
          "type": "address"
        },
        {
          "indexed": true,
          "internalType": "address",
          "name": "to",
          "type": "address"
        }
      ],
      "name": "OwnershipTransferRequested",
      "type": "event"
    },
    {
      "anonymous": false,
      "inputs": [
        {
          "indexed": true,
          "internalType": "address",
          "name": "from",
          "type": "address"
        },
        {
          "indexed": true,
          "internalType": "address",
          "name": "to",
          "type": "address"
        }
      ],
      "name": "OwnershipTransferred",
      "type": "event"
    },
    {
      "inputs": [],
      "name": "acceptOwnership",
      "outputs": [],
      "stateMutability": "nonpayable",
      "type": "function"
    },
    {
      "inputs": [],
      "name": "owner",
      "outputs": [
        {
          "internalType": "address",
          "name": "",
          "type": "address"
        }
      ],
      "stateMutability": "view",
      "type": "function"
    },
    {
      "inputs": [
        {
          "internalType": "address",
          "name": "to",
          "type": "address"
        }
      ],
      "name": "transferOwnership",
      "outputs": [],
      "stateMutability": "nonpayable",
      "type": "function"
    },
    {
      "inputs": [
        {
          "internalType": "address",
          "name": "_beneficiary",
          "type": "address"
        }
      ],
      "name": "withdraw",
      "outputs": [],
      "stateMutability": "nonpayable",
      "type": "function"
    },
    {
      "inputs": [
        {
          "internalType": "address",
          "name": "_beneficiary",
          "type": "address"
        },
        {
          "internalType": "address",
          "name": "_token",
          "type": "address"
        }
      ],
      "name": "withdrawToken",
      "outputs": [],
      "stateMutability": "nonpayable",
      "type": "function"
    }
  ],
  "bytecode": "0x608060405234801561001057600080fd5b5033806000816100675760405162461bcd60e51b815260206004820152601860248201527f43616e6e6f7420736574206f776e657220746f207a65726f000000000000000060448201526064015b60405180910390fd5b600080546001600160a01b0319166001600160a01b0384811691909117909155811615610097576100978161009f565b505050610148565b336001600160a01b038216036100f75760405162461bcd60e51b815260206004820152601760248201527f43616e6e6f74207472616e7366657220746f2073656c66000000000000000000604482015260640161005e565b600180546001600160a01b0319166001600160a01b0383811691821790925560008054604051929316917fed8889f560326eb138920d842192f0eb3dd22b4f139c87a2c57538e05bae12789190a350565b6106db806101576000396000f3fe608060405234801561001057600080fd5b50600436106100575760003560e01c80633aeac4e11461005c57806351cff8d91461007157806379ba5097146100845780638da5cb5b1461008c578063f2fde38b146100ab575b600080fd5b61006f61006a3660046105ed565b6100be565b005b61006f61007f366004610620565b61016d565b61006f610229565b600054604080516001600160a01b039092168252519081900360200190f35b61006f6100b9366004610620565b6102d3565b6100c66102e7565b6040516370a0823160e01b81523060048201526000906001600160a01b038316906370a0823190602401602060405180830381865afa15801561010d573d6000803e3d6000fd5b505050506040513d601f19601f82011682018060405250810190610131919061063b565b90508060000361015457604051630686827b60e51b815260040160405180910390fd5b6101686001600160a01b038316848361033c565b505050565b6101756102e7565b47600081900361019857604051630686827b60e51b815260040160405180910390fd5b6000826001600160a01b03168260405160006040518083038185875af1925050503d80600081146101e5576040519150601f19603f3d011682016040523d82523d6000602084013e6101ea565b606091505b505090508061016857604051639d11f56360e01b81523360048201526001600160a01b0384166024820152604481018390526064015b60405180910390fd5b6001546001600160a01b0316331461027c5760405162461bcd60e51b815260206004820152601660248201527526bab9ba10313290383937b837b9b2b21037bbb732b960511b6044820152606401610220565b60008054336001600160a01b0319808316821784556001805490911690556040516001600160a01b0390921692909183917f8be0079c531659141344cd1fd0a4f28419497f9722a3daafe3b4186f6b6457e091a350565b6102db6102e7565b6102e48161038e565b50565b6000546001600160a01b0316331461033a5760405162461bcd60e51b815260206004820152601660248201527527b7363c9031b0b63630b1363290313c9037bbb732b960511b6044820152606401610220565b565b604080516001600160a01b038416602482015260448082018490528251808303909101815260649091019091526020810180516001600160e01b031663a9059cbb60e01b179052610168908490610437565b336001600160a01b038216036103e65760405162461bcd60e51b815260206004820152601760248201527f43616e6e6f74207472616e7366657220746f2073656c660000000000000000006044820152606401610220565b600180546001600160a01b0319166001600160a01b0383811691821790925560008054604051929316917fed8889f560326eb138920d842192f0eb3dd22b4f139c87a2c57538e05bae12789190a350565b600061044c6001600160a01b0384168361049a565b9050805160001415801561047157508080602001905181019061046f9190610654565b155b1561016857604051635274afe760e01b81526001600160a01b0384166004820152602401610220565b60606104a8838360006104af565b9392505050565b6060814710156104d45760405163cd78605960e01b8152306004820152602401610220565b600080856001600160a01b031684866040516104f09190610676565b60006040518083038185875af1925050503d806000811461052d576040519150601f19603f3d011682016040523d82523d6000602084013e610532565b606091505b509150915061054286838361054c565b9695505050505050565b6060826105615761055c826105a8565b6104a8565b815115801561057857506001600160a01b0384163b155b156105a157604051639996b31560e01b81526001600160a01b0385166004820152602401610220565b50806104a8565b8051156105b85780518082602001fd5b604051630a12f52160e11b815260040160405180910390fd5b80356001600160a01b03811681146105e857600080fd5b919050565b6000806040838503121561060057600080fd5b610609836105d1565b9150610617602084016105d1565b90509250929050565b60006020828403121561063257600080fd5b6104a8826105d1565b60006020828403121561064d57600080fd5b5051919050565b60006020828403121561066657600080fd5b815180151581146104a857600080fd5b6000825160005b81811015610697576020818601810151858301520161067d565b50600092019182525091905056fea26469706673582212207c5de25a105d73a3661f36fba50f51dcc71403c5a1614356c481c4a247b1f4cf64736f6c63430008180033",
  "linkReferences": {},
  "deployedLinkReferences": {}
}