{
  "_format": "hh-sol-artifact-1",
  "contractName": "RealEstatePriceDetails",
  "sourceName": "contracts/RealEstatePriceDetails.sol",
  "abi": [
    {
      "inputs": [
        {
          "internalType": "address",
          "name": "functionsRouterAddress",
          "type": "address"
        }
      ],
      "stateMutability": "nonpayable",
      "type": "constructor"
    },
    {
      "inputs": [],
      "name": "EmptyArgs",
      "type": "error"
    },
    {
      "inputs": [],
      "name": "EmptySource",
      "type": "error"
    },
    {
      "inputs": [],
      "name": "NoInlineSecrets",
      "type": "error"
    },
    {
      "inputs": [],
      "name": "OnlyAutomationForwarderOrOwnerCanCall",
      "type": "error"
    },
    {
      "inputs": [],
      "name": "OnlyRouterCanFulfill",
      "type": "error"
    },
    {
      "anonymous": false,
      "inputs": [
        {
          "indexed": true,
          "internalType": "address",
          "name": "from",
          "type": "address"
        },
        {
          "indexed": true,
          "internalType": "address",
          "name": "to",
          "type": "address"
        }
      ],
      "name": "OwnershipTransferRequested",
      "type": "event"
    },
    {
      "anonymous": false,
      "inputs": [
        {
          "indexed": true,
          "internalType": "address",
          "name": "from",
          "type": "address"
        },
        {
          "indexed": true,
          "internalType": "address",
          "name": "to",
          "type": "address"
        }
      ],
      "name": "OwnershipTransferred",
      "type": "event"
    },
    {
      "anonymous": false,
      "inputs": [
        {
          "indexed": true,
          "internalType": "bytes32",
          "name": "id",
          "type": "bytes32"
        }
      ],
      "name": "RequestFulfilled",
      "type": "event"
    },
    {
      "anonymous": false,
      "inputs": [
        {
          "indexed": true,
          "internalType": "bytes32",
          "name": "id",
          "type": "bytes32"
        }
      ],
      "name": "RequestSent",
      "type": "event"
    },
    {
      "inputs": [],
      "name": "acceptOwnership",
      "outputs": [],
      "stateMutability": "nonpayable",
      "type": "function"
    },
    {
      "inputs": [],
      "name": "getNftMetadata",
      "outputs": [
        {
          "internalType": "string",
          "name": "",
          "type": "string"
        }
      ],
      "stateMutability": "view",
      "type": "function"
    },
    {
      "inputs": [
        {
          "internalType": "uint256",
          "name": "tokenId",
          "type": "uint256"
        }
      ],
      "name": "getPriceDetails",
      "outputs": [
        {
          "components": [
            {
              "internalType": "uint80",
              "name": "listPrice",
              "type": "uint80"
            },
            {
              "internalType": "uint80",
              "name": "originalListPrice",
              "type": "uint80"
            },
            {
              "internalType": "uint80",
              "name": "taxAssessedValue",
              "type": "uint80"
            }
          ],
          "internalType": "struct RealEstatePriceDetails.PriceDetails",
          "name": "",
          "type": "tuple"
        }
      ],
      "stateMutability": "view",
      "type": "function"
    },
    {
      "inputs": [],
      "name": "getPrices",
      "outputs": [
        {
          "internalType": "string",
          "name": "",
          "type": "string"
        }
      ],
      "stateMutability": "view",
      "type": "function"
    },
    {
      "inputs": [
        {
          "internalType": "bytes32",
          "name": "requestId",
          "type": "bytes32"
        },
        {
          "internalType": "bytes",
          "name": "response",
          "type": "bytes"
        },
        {
          "internalType": "bytes",
          "name": "err",
          "type": "bytes"
        }
      ],
      "name": "handleOracleFulfillment",
      "outputs": [],
      "stateMutability": "nonpayable",
      "type": "function"
    },
    {
      "inputs": [],
      "name": "owner",
      "outputs": [
        {
          "internalType": "address",
          "name": "",
          "type": "address"
        }
      ],
      "stateMutability": "view",
      "type": "function"
    },
    {
      "inputs": [
        {
          "internalType": "address",
          "name": "automationForwarderAddress",
          "type": "address"
        }
      ],
      "name": "setAutomationForwarder",
      "outputs": [],
      "stateMutability": "nonpayable",
      "type": "function"
    },
    {
      "inputs": [
        {
          "internalType": "address",
          "name": "to",
          "type": "address"
        }
      ],
      "name": "transferOwnership",
      "outputs": [],
      "stateMutability": "nonpayable",
      "type": "function"
    },
    {
      "inputs": [
        {
          "internalType": "string",
          "name": "tokenId",
          "type": "string"
        },
        {
          "internalType": "uint64",
          "name": "subscriptionId",
          "type": "uint64"
        },
        {
          "internalType": "uint32",
          "name": "gasLimit",
          "type": "uint32"
        },
        {
          "internalType": "bytes32",
          "name": "donID",
          "type": "bytes32"
        }
      ],
      "name": "updatePriceDetails",
      "outputs": [
        {
          "internalType": "bytes32",
          "name": "requestId",
          "type": "bytes32"
        }
      ],
      "stateMutability": "nonpayable",
      "type": "function"
    }
  ],
  "bytecode": "0x61050060405261043b60a0818152906200192b60c03960009062000024908262000276565b50604051806102e001604052806102b1815260200162001d666102b1913960019062000051908262000276565b503480156200005f57600080fd5b506040516200201738038062002017833981016040819052620000829162000342565b6001600160a01b0381166080523380600081620000e65760405162461bcd60e51b815260206004820152601860248201527f43616e6e6f7420736574206f776e657220746f207a65726f000000000000000060448201526064015b60405180910390fd5b600280546001600160a01b0319166001600160a01b03848116919091179091558116156200011957620001198162000123565b5050505062000374565b336001600160a01b038216036200017d5760405162461bcd60e51b815260206004820152601760248201527f43616e6e6f74207472616e7366657220746f2073656c660000000000000000006044820152606401620000dd565b600380546001600160a01b0319166001600160a01b03838116918217909255600254604051919216907fed8889f560326eb138920d842192f0eb3dd22b4f139c87a2c57538e05bae127890600090a350565b634e487b7160e01b600052604160045260246000fd5b600181811c90821680620001fa57607f821691505b6020821081036200021b57634e487b7160e01b600052602260045260246000fd5b50919050565b601f82111562000271576000816000526020600020601f850160051c810160208610156200024c5750805b601f850160051c820191505b818110156200026d5782815560010162000258565b5050505b505050565b81516001600160401b03811115620002925762000292620001cf565b620002aa81620002a38454620001e5565b8462000221565b602080601f831160018114620002e25760008415620002c95750858301515b600019600386901b1c1916600185901b1785556200026d565b600085815260208120601f198616915b828110156200031357888601518255948401946001909101908401620002f2565b5085821015620003325787850151600019600388901b60f8161c191681555b5050505050600190811b01905550565b6000602082840312156200035557600080fd5b81516001600160a01b03811681146200036d57600080fd5b9392505050565b60805161159462000397600039600081816101e7015261092401526115946000f3fe608060405234801561001057600080fd5b50600436106100935760003560e01c8063bd9a548b11610066578063bd9a548b146100f6578063d40d17bc1461010b578063e6b46ff51461011e578063f0ed2e8014610126578063f2fde38b146101c957600080fd5b80630ca761751461009857806379ba5097146100ad5780638da5cb5b146100b5578063a843a0ab146100d5575b600080fd5b6100ab6100a63660046110e3565b6101dc565b005b6100ab610260565b6002546040516001600160a01b0390911681526020015b60405180910390f35b6100e86100e336600461114f565b610313565b6040519081526020016100cc565b6100fe610481565b6040516100cc9190611230565b6100ab610119366004611243565b61050f565b6100fe610539565b61019461013436600461126c565b6040805160608082018352600080835260208084018290529284018190529384526005825292829020825193840183525469ffffffffffffffffffff8082168552600160501b8204811692850192909252600160a01b9004169082015290565b60408051825169ffffffffffffffffffff908116825260208085015182169083015292820151909216908201526060016100cc565b6100ab6101d7366004611243565b610546565b336001600160a01b037f000000000000000000000000000000000000000000000000000000000000000016146102255760405163c6829f8360e01b815260040160405180910390fd5b61023083838361055a565b60405183907f85e1543bf2f84fe80c6badbce3648c8539ad1df4d2b3d822938ca0538be727e690600090a2505050565b6003546001600160a01b031633146102b85760405162461bcd60e51b815260206004820152601660248201527526bab9ba10313290383937b837b9b2b21037bbb732b960511b60448201526064015b60405180910390fd5b600280546001600160a01b0319808216339081179093556003805490911690556040516001600160a01b03909116919082907f8be0079c531659141344cd1fd0a4f28419497f9722a3daafe3b4186f6b6457e090600090a350565b6004546000906001600160a01b0316331480159061033c57506002546001600160a01b03163314155b1561035a576040516302dc7d2f60e21b815260040160405180910390fd5b61039b6040805160e0810190915280600081526020016000815260200160008152602001606081526020016060815260200160608152602001606081525090565b61040b306001600160a01b031663bd9a548b6040518163ffffffff1660e01b8152600401600060405180830381865afa1580156103dc573d6000803e3d6000fd5b505050506040513d6000823e601f3d908101601f191682016040526104049190810190611285565b829061061c565b604080516001808252818301909252600091816020015b6060815260200190600190039081610422579050509050868160008151811061044d5761044d6112fb565b6020908102919091010152610462828261062d565b61047661046e83610657565b87878761091f565b979650505050505050565b6001805461048e90611311565b80601f01602080910402602001604051908101604052809291908181526020018280546104ba90611311565b80156105075780601f106104dc57610100808354040283529160200191610507565b820191906000526020600020905b8154815290600101906020018083116104ea57829003601f168201915b505050505081565b6105176109f1565b600480546001600160a01b0319166001600160a01b0392909216919091179055565b6000805461048e90611311565b61054e6109f1565b61055781610a46565b50565b80511561057b578060405162461bcd60e51b81526004016102af9190611230565b60008060008085806020019051810190610595919061134b565b6040805160608101825269ffffffffffffffffffff9485168152928416602080850191825292851684830190815260009687526005909352942091518254945191518416600160a01b0269ffffffffffffffffffff60a01b19928516600160501b026001600160a01b03199096169190941617939093179290921617905550505050505050565b6106298260008084610af0565b5050565b805160000361064f5760405163fe936cb760e01b815260040160405180910390fd5b60a090910152565b60606000610666610100610b6e565b905061069f6040518060400160405280600c81526020016b31b7b232a637b1b0ba34b7b760a11b81525082610b8f90919063ffffffff16565b82516106bd9060028111156106b6576106b6611381565b8290610bad565b6040805180820190915260088152676c616e677561676560c01b60208201526106e7908290610b8f565b60408301516106fe9080156106b6576106b6611381565b604080518082019091526006815265736f7572636560d01b6020820152610726908290610b8f565b6060830151610736908290610b8f565b60a083015151156107c2576040805180820190915260048152636172677360e01b6020820152610767908290610b8f565b61077081610be6565b60005b8360a00151518110156107b8576107b08460a001518281518110610799576107996112fb565b602002602001015183610b8f90919063ffffffff16565b600101610773565b506107c281610c0a565b60808301515115610886576000836020015160028111156107e5576107e5611381565b036108035760405163a80d31f760e01b815260040160405180910390fd5b60408051808201909152600f81526e39b2b1b932ba39a637b1b0ba34b7b760891b6020820152610834908290610b8f565b61084d836020015160028111156106b6576106b6611381565b6040805180820190915260078152667365637265747360c81b6020820152610876908290610b8f565b6080830151610886908290610c28565b60c083015151156109175760408051808201909152600981526862797465734172677360b81b60208201526108bc908290610b8f565b6108c581610be6565b60005b8360c001515181101561090d576109058460c0015182815181106108ee576108ee6112fb565b602002602001015183610c2890919063ffffffff16565b6001016108c8565b5061091781610c0a565b515192915050565b6000807f00000000000000000000000000000000000000000000000000000000000000006001600160a01b031663461d27628688600188886040518663ffffffff1660e01b8152600401610977959493929190611397565b6020604051808303816000875af1158015610996573d6000803e3d6000fd5b505050506040513d601f19601f820116820180604052508101906109ba91906113e0565b60405190915081907f1131472297a800fee664d1d89cfa8f7676ff07189ecc53f80bbb5f4969099db890600090a295945050505050565b6002546001600160a01b03163314610a445760405162461bcd60e51b815260206004820152601660248201527527b7363c9031b0b63630b1363290313c9037bbb732b960511b60448201526064016102af565b565b336001600160a01b03821603610a9e5760405162461bcd60e51b815260206004820152601760248201527f43616e6e6f74207472616e7366657220746f2073656c6600000000000000000060448201526064016102af565b600380546001600160a01b0319166001600160a01b03838116918217909255600254604051919216907fed8889f560326eb138920d842192f0eb3dd22b4f139c87a2c57538e05bae127890600090a350565b8051600003610b12576040516322ce3edd60e01b815260040160405180910390fd5b83836002811115610b2557610b25611381565b90816002811115610b3857610b38611381565b90525060408401828015610b4e57610b4e611381565b90818015610b5e57610b5e611381565b9052506060909301929092525050565b610b76610fe3565b8051610b829083610c35565b5060006020820152919050565b610b9c8260038351610caf565b8151610ba89082610dce565b505050565b8151610bba9060c2610df6565b506106298282604051602001610bd291815260200190565b604051602081830303815290604052610c28565b610bf1816004610e5f565b600181602001818151610c04919061140f565b90525050565b610c15816007610e5f565b600181602001818151610c049190611422565b610b9c8260028351610caf565b604080518082019091526060815260006020820152610c55602083611435565b15610c7d57610c65602083611435565b610c70906020611422565b610c7a908361140f565b91505b602080840183905260405180855260008152908184010181811015610ca157600080fd5b604052508290505b92915050565b6017816001600160401b031611610cdb578251610cd59060e0600585901b168317610df6565b50505050565b60ff816001600160401b031611610d1b578251610d03906018611fe0600586901b1617610df6565b508251610cd5906001600160401b0383166001610e76565b61ffff816001600160401b031611610d5c578251610d44906019611fe0600586901b1617610df6565b508251610cd5906001600160401b0383166002610e76565b63ffffffff816001600160401b031611610d9f578251610d8790601a611fe0600586901b1617610df6565b508251610cd5906001600160401b0383166004610e76565b8251610db690601b611fe0600586901b1617610df6565b508251610cd5906001600160401b0383166008610e76565b604080518082019091526060815260006020820152610def83838451610efb565b9392505050565b6040805180820190915260608152600060208201528251516000610e1b82600161140f565b905084602001518210610e3c57610e3c85610e37836002611457565b610fcc565b8451602083820101858153508051821115610e55578181525b5093949350505050565b8151610ba890601f611fe0600585901b1617610df6565b6040805180820190915260608152600060208201528351516000610e9a828561140f565b90508560200151811115610eb757610eb786610e37836002611457565b60006001610ec786610100611552565b610ed19190611422565b90508651828101878319825116178152508051831115610eef578281525b50959695505050505050565b6040805180820190915260608152600060208201528251821115610f1e57600080fd5b8351516000610f2d848361140f565b90508560200151811115610f4a57610f4a86610e37836002611457565b855180518382016020019160009180851115610f64578482525b505050602086015b60208610610fa45780518252610f8360208361140f565b9150610f9060208261140f565b9050610f9d602087611422565b9550610f6c565b51815160001960208890036101000a0190811690199190911617905250849150509392505050565b8151610fd88383610c35565b50610cd58382610dce565b604051806040016040528061100b604051806040016040528060608152602001600081525090565b8152602001600081525090565b634e487b7160e01b600052604160045260246000fd5b604051601f8201601f191681016001600160401b038111828210171561105657611056611018565b604052919050565b60006001600160401b0382111561107757611077611018565b50601f01601f191660200190565b60006110986110938461105e565b61102e565b90508281528383830111156110ac57600080fd5b828260208301376000602084830101529392505050565b600082601f8301126110d457600080fd5b610def83833560208501611085565b6000806000606084860312156110f857600080fd5b8335925060208401356001600160401b038082111561111657600080fd5b611122878388016110c3565b9350604086013591508082111561113857600080fd5b50611145868287016110c3565b9150509250925092565b6000806000806080858703121561116557600080fd5b84356001600160401b038082111561117c57600080fd5b818701915087601f83011261119057600080fd5b61119f88833560208501611085565b95506020870135915080821682146111b657600080fd5b509250604085013563ffffffff811681146111d057600080fd5b9396929550929360600135925050565b60005b838110156111fb5781810151838201526020016111e3565b50506000910152565b6000815180845261121c8160208601602086016111e0565b601f01601f19169290920160200192915050565b602081526000610def6020830184611204565b60006020828403121561125557600080fd5b81356001600160a01b0381168114610def57600080fd5b60006020828403121561127e57600080fd5b5035919050565b60006020828403121561129757600080fd5b81516001600160401b038111156112ad57600080fd5b8201601f810184136112be57600080fd5b80516112cc6110938261105e565b8181528560208385010111156112e157600080fd5b6112f28260208301602086016111e0565b95945050505050565b634e487b7160e01b600052603260045260246000fd5b600181811c9082168061132557607f821691505b60208210810361134557634e487b7160e01b600052602260045260246000fd5b50919050565b6000806000806080858703121561136157600080fd5b505082516020840151604085015160609095015191969095509092509050565b634e487b7160e01b600052602160045260246000fd5b6001600160401b038616815260a0602082015260006113b960a0830187611204565b61ffff9590951660408301525063ffffffff92909216606083015260809091015292915050565b6000602082840312156113f257600080fd5b5051919050565b634e487b7160e01b600052601160045260246000fd5b80820180821115610ca957610ca96113f9565b81810381811115610ca957610ca96113f9565b60008261145257634e487b7160e01b600052601260045260246000fd5b500690565b8082028115828204841417610ca957610ca96113f9565b600181815b808511156114a957816000190482111561148f5761148f6113f9565b8085161561149c57918102915b93841c9390800290611473565b509250929050565b6000826114c057506001610ca9565b816114cd57506000610ca9565b81600181146114e357600281146114ed57611509565b6001915050610ca9565b60ff8411156114fe576114fe6113f9565b50506001821b610ca9565b5060208310610133831016604e8410600b841016171561152c575081810a610ca9565b611536838361146e565b806000190482111561154a5761154a6113f9565b029392505050565b6000610def83836114b156fea2646970667358221220f88841404962b2e67f5ceeb139fa8402da5d471f2be53d0b1caa45adba4684d864736f6c63430008180033636f6e7374207b20657468657273207d203d20617761697420696d706f727428276e706d3a65746865727340362e31302e3027293b636f6e73742048617368203d20617761697420696d706f727428276e706d3a697066732d6f6e6c792d6861736840342e302e3027293b636f6e737420617069526573706f6e7365203d2061776169742046756e6374696f6e732e6d616b654874747052657175657374287b2020202075726c3a206068747470733a2f2f6170692e627269646765646174616f75747075742e636f6d2f6170692f76322f4f446174612f746573742f50726f70657274792827505f35646261316662393461613430353562396632393639366627293f6163636573735f746f6b656e3d3662616361353437373432633666393661366666373162313338343234663231602c7d293b636f6e7374207265616c45737461746541646472657373203d20617069526573706f6e73652e646174612e556e706172736564416464726573733b636f6e737420796561724275696c74203d204e756d62657228617069526573706f6e73652e646174612e596561724275696c74293b636f6e7374206c6f7453697a6553717561726546656574203d204e756d62657228617069526573706f6e73652e646174612e4c6f7453697a6553717561726546656574293b636f6e7374206c6976696e6741726561203d204e756d62657228617069526573706f6e73652e646174612e4c6976696e6741726561293b636f6e737420626564726f6f6d73546f74616c203d204e756d62657228617069526573706f6e73652e646174612e426564726f6f6d73546f74616c293b636f6e7374206d65746164617461203d207b6e616d653a20605265616c2045737461746520546f6b656e602c617474726962757465733a205b7b2074726169745f747970653a20607265616c45737461746541646472657373602c2076616c75653a207265616c45737461746541646472657373207d2c7b2074726169745f747970653a2060796561724275696c74602c2076616c75653a20796561724275696c74207d2c7b2074726169745f747970653a20606c6f7453697a6553717561726546656574602c2076616c75653a206c6f7453697a6553717561726546656574207d2c7b2074726169745f747970653a20606c6976696e6741726561602c2076616c75653a206c6976696e6741726561207d2c7b2074726169745f747970653a2060626564726f6f6d73546f74616c602c2076616c75653a20626564726f6f6d73546f74616c207d5d7d3b636f6e7374206d65746164617461537472696e67203d204a534f4e2e737472696e67696679286d65746164617461293b636f6e73742069706673436964203d20617761697420486173682e6f66286d65746164617461537472696e67293b72657475726e2046756e6374696f6e732e656e636f6465537472696e672860697066733a2f2f247b697066734369647d60293b636f6e7374207b20657468657273207d203d20617761697420696d706f727428276e706d3a65746865727340362e31302e3027293b636f6e737420616269436f646572203d206574686572732e416269436f6465722e64656661756c74416269436f64657228293b636f6e737420746f6b656e4964203d20617267735b305d3b636f6e737420617069526573706f6e7365203d2061776169742046756e6374696f6e732e6d616b654874747052657175657374287b2020202075726c3a206068747470733a2f2f6170692e627269646765646174616f75747075742e636f6d2f6170692f76322f4f446174612f746573742f50726f70657274792827505f35646261316662393461613430353562396632393639366627293f6163636573735f746f6b656e3d3662616361353437373432633666393661366666373162313338343234663231602c7d293b636f6e7374206c6973745072696365203d204e756d62657228617069526573706f6e73652e646174612e4c6973745072696365293b636f6e7374206f726967696e616c4c6973745072696365203d204e756d62657228617069526573706f6e73652e646174612e4f726967696e616c4c6973745072696365293b636f6e737420746178417373657373656456616c7565203d204e756d62657228617069526573706f6e73652e646174612e546178417373657373656456616c7565293b636f6e737420656e636f646564203d20616269436f6465722e656e636f6465285b6075696e74323536602c206075696e74323536602c206075696e74323536602c206075696e74323536605d2c205b746f6b656e49642c206c69737450726963652c206f726967696e616c4c69737450726963652c20746178417373657373656456616c75655d293b72657475726e206574686572732e676574427974657328656e636f646564293b",
  "linkReferences": {},
  "deployedLinkReferences": {}
}