{
  "_format": "hh-sol-artifact-1",
  "contractName": "EnglishAuction",
  "sourceName": "contracts/use-cases/EnglishAuction.sol",
  "abi": [
    {
      "inputs": [
        {
          "internalType": "address",
          "name": "fractionalizedRealEstateTokenAddress",
          "type": "address"
        }
      ],
      "stateMutability": "nonpayable",
      "type": "constructor"
    },
    {
      "inputs": [],
      "name": "EnglishAuction_AuctionAlreadyStarted",
      "type": "error"
    },
    {
      "inputs": [],
      "name": "EnglishAuction_AuctionEnded",
      "type": "error"
    },
    {
      "inputs": [],
      "name": "EnglishAuction_BidNotHighEnough",
      "type": "error"
    },
    {
      "inputs": [],
      "name": "EnglishAuction_CannotWithdrawHighestBid",
      "type": "error"
    },
    {
      "inputs": [],
      "name": "EnglishAuction_NoAuctionsInProgress",
      "type": "error"
    },
    {
      "inputs": [],
      "name": "EnglishAuction_OnlySellerCanCall",
      "type": "error"
    },
    {
      "inputs": [],
      "name": "EnglishAuction_TooEarlyToEnd",
      "type": "error"
    },
    {
      "inputs": [
        {
          "internalType": "address",
          "name": "recipient",
          "type": "address"
        },
        {
          "internalType": "uint256",
          "name": "amount",
          "type": "uint256"
        }
      ],
      "name": "FailedToSendEth",
      "type": "error"
    },
    {
      "inputs": [
        {
          "internalType": "address",
          "name": "bidder",
          "type": "address"
        },
        {
          "internalType": "uint256",
          "name": "amount",
          "type": "uint256"
        }
      ],
      "name": "FailedToWithdrawBid",
      "type": "error"
    },
    {
      "inputs": [],
      "name": "NothingToWithdraw",
      "type": "error"
    },
    {
      "inputs": [],
      "name": "OnlyRealEstateTokenSupported",
      "type": "error"
    },
    {
      "inputs": [],
      "name": "ReentrancyGuardReentrantCall",
      "type": "error"
    },
    {
      "inputs": [
        {
          "internalType": "uint8",
          "name": "bits",
          "type": "uint8"
        },
        {
          "internalType": "uint256",
          "name": "value",
          "type": "uint256"
        }
      ],
      "name": "SafeCastOverflowedUintDowncast",
      "type": "error"
    },
    {
      "anonymous": false,
      "inputs": [
        {
          "indexed": true,
          "internalType": "uint256",
          "name": "tokenId",
          "type": "uint256"
        },
        {
          "indexed": false,
          "internalType": "uint256",
          "name": "amount",
          "type": "uint256"
        },
        {
          "indexed": true,
          "internalType": "address",
          "name": "winner",
          "type": "address"
        },
        {
          "indexed": true,
          "internalType": "uint256",
          "name": "winningBid",
          "type": "uint256"
        }
      ],
      "name": "AuctionEnded",
      "type": "event"
    },
    {
      "anonymous": false,
      "inputs": [
        {
          "indexed": true,
          "internalType": "uint256",
          "name": "tokenId",
          "type": "uint256"
        },
        {
          "indexed": true,
          "internalType": "uint256",
          "name": "amount",
          "type": "uint256"
        },
        {
          "indexed": true,
          "internalType": "uint48",
          "name": "endTimestamp",
          "type": "uint48"
        }
      ],
      "name": "AuctionStarted",
      "type": "event"
    },
    {
      "anonymous": false,
      "inputs": [
        {
          "indexed": true,
          "internalType": "address",
          "name": "bidder",
          "type": "address"
        },
        {
          "indexed": true,
          "internalType": "uint256",
          "name": "amount",
          "type": "uint256"
        }
      ],
      "name": "Bid",
      "type": "event"
    },
    {
      "inputs": [],
      "name": "bid",
      "outputs": [],
      "stateMutability": "payable",
      "type": "function"
    },
    {
      "inputs": [],
      "name": "endAuction",
      "outputs": [],
      "stateMutability": "nonpayable",
      "type": "function"
    },
    {
      "inputs": [],
      "name": "getTokenIdOnAuction",
      "outputs": [
        {
          "internalType": "uint256",
          "name": "",
          "type": "uint256"
        }
      ],
      "stateMutability": "view",
      "type": "function"
    },
    {
      "inputs": [
        {
          "internalType": "address",
          "name": "",
          "type": "address"
        },
        {
          "internalType": "address",
          "name": "",
          "type": "address"
        },
        {
          "internalType": "uint256[]",
          "name": "",
          "type": "uint256[]"
        },
        {
          "internalType": "uint256[]",
          "name": "",
          "type": "uint256[]"
        },
        {
          "internalType": "bytes",
          "name": "",
          "type": "bytes"
        }
      ],
      "name": "onERC1155BatchReceived",
      "outputs": [
        {
          "internalType": "bytes4",
          "name": "",
          "type": "bytes4"
        }
      ],
      "stateMutability": "view",
      "type": "function"
    },
    {
      "inputs": [
        {
          "internalType": "address",
          "name": "",
          "type": "address"
        },
        {
          "internalType": "address",
          "name": "",
          "type": "address"
        },
        {
          "internalType": "uint256",
          "name": "",
          "type": "uint256"
        },
        {
          "internalType": "uint256",
          "name": "",
          "type": "uint256"
        },
        {
          "internalType": "bytes",
          "name": "",
          "type": "bytes"
        }
      ],
      "name": "onERC1155Received",
      "outputs": [
        {
          "internalType": "bytes4",
          "name": "",
          "type": "bytes4"
        }
      ],
      "stateMutability": "view",
      "type": "function"
    },
    {
      "inputs": [
        {
          "internalType": "uint256",
          "name": "tokenId",
          "type": "uint256"
        },
        {
          "internalType": "uint256",
          "name": "amount",
          "type": "uint256"
        },
        {
          "internalType": "bytes",
          "name": "data",
          "type": "bytes"
        },
        {
          "internalType": "uint256",
          "name": "startingBid",
          "type": "uint256"
        }
      ],
      "name": "startAuction",
      "outputs": [],
      "stateMutability": "nonpayable",
      "type": "function"
    },
    {
      "inputs": [
        {
          "internalType": "bytes4",
          "name": "interfaceId",
          "type": "bytes4"
        }
      ],
      "name": "supportsInterface",
      "outputs": [
        {
          "internalType": "bool",
          "name": "",
          "type": "bool"
        }
      ],
      "stateMutability": "view",
      "type": "function"
    },
    {
      "inputs": [],
      "name": "withdrawBid",
      "outputs": [],
      "stateMutability": "nonpayable",
      "type": "function"
    }
  ],
  "bytecode": "0x60c060405234801561001057600080fd5b50604051610cbf380380610cbf83398101604081905261002f91610049565b6001600055336080526001600160a01b031660a052610079565b60006020828403121561005b57600080fd5b81516001600160a01b038116811461007257600080fd5b9392505050565b60805160a051610bf76100c86000396000818161043f0152818161058d015281816105ed01526106f90152600081816103ea0152818161046c0152818161076701526107e90152610bf76000f3fe60806040526004361061007b5760003560e01c8063bc197c811161004e578063bc197c81146100f4578063e8e205491461012d578063f23a6e611461014b578063fe67a54b1461016b57600080fd5b806301ffc9a7146100805780631998aeef146100b557806337271cc7146100bf5780637a6cd7bb146100d4575b600080fd5b34801561008c57600080fd5b506100a061009b3660046108db565b610180565b60405190151581526020015b60405180910390f35b6100bd6101b7565b005b3480156100cb57600080fd5b506100bd6102b6565b3480156100e057600080fd5b506100bd6100ef366004610955565b6103b3565b34801561010057600080fd5b5061011461010f366004610a11565b610580565b6040516001600160e01b031990911681526020016100ac565b34801561013957600080fd5b506003546040519081526020016100ac565b34801561015757600080fd5b50610114610166366004610acc565b6105e0565b34801561017757600080fd5b506100bd61063e565b60006001600160e01b03198216630271189760e51b14806101b157506001600160e01b031982166301ffc9a760e01b145b92915050565b6101bf61087a565b60015460ff166101e257604051636e66e97d60e11b815260040160405180910390fd5b600154610100900465ffffffffffff1642106102115760405163b85294d960e01b815260040160405180910390fd5b600254341161023357604051638aba601f60e01b815260040160405180910390fd5b60018054600160381b600160d81b03191633600160381b8102919091179091553460028190556000918252600560205260408220805491929091610278908490610b44565b9091555050604051349033907fe684a55f31b79eca403df938249029212a5925ec6be8012e099b45bc1019e5d290600090a36102b46001600055565b565b6102be61087a565b600154600160381b90046001600160a01b031633036102f057604051631593fa2560e31b815260040160405180910390fd5b336000908152600560205260408120549081900361032157604051630686827b60e51b815260040160405180910390fd5b336000818152600560205260408082208290555190919083908381818185875af1925050503d8060008114610372576040519150601f19603f3d011682016040523d82523d6000602084013e610377565b606091505b50509050806103a7576040516311f847e760e01b8152336004820152602481018390526044015b60405180910390fd5b50506102b46001600055565b6103bb61087a565b60015460ff16156103df576040516305d8f45360e01b815260040160405180910390fd5b336001600160a01b037f000000000000000000000000000000000000000000000000000000000000000016146104285760405163fc375da760e01b815260040160405180910390fd5b604051637921219560e11b81526001600160a01b037f0000000000000000000000000000000000000000000000000000000000000000169063f242432a9061049e907f00000000000000000000000000000000000000000000000000000000000000009030908a908a908a908a90600401610b65565b600060405180830381600087803b1580156104b857600080fd5b505af11580156104cc573d6000803e3d6000fd5b50506001805460ff191681179055506104f290506104ed4262093a80610b44565b6108a4565b6001805460038890556004879055610100600160d81b03191661010065ffffffffffff9384168102600160381b600160d81b0319169190911733600160381b0217918290556002849055604051910490911690859087907f768bd78ab1ec57846676a68a1e1734eb6f53ac34b93517c174e9a36a96a2713990600090a46105796001600055565b5050505050565b6000336001600160a01b037f000000000000000000000000000000000000000000000000000000000000000016146105cb57604051634f2a2fb560e11b815260040160405180910390fd5b5063bc197c8160e01b98975050505050505050565b6000336001600160a01b037f0000000000000000000000000000000000000000000000000000000000000000161461062b57604051634f2a2fb560e11b815260040160405180910390fd5b5063f23a6e6160e01b9695505050505050565b61064661087a565b60015460ff1661066957604051636e66e97d60e11b815260040160405180910390fd5b600154610100900465ffffffffffff164210156106995760405163195c3b1760e21b815260040160405180910390fd5b6001805460ff19169081905560035460048054604051637921219560e11b81523092810192909252600160381b9093046001600160a01b0390811660248301526044820192909252606481019290925260a06084830152600060a48301527f0000000000000000000000000000000000000000000000000000000000000000169063f242432a9060c401600060405180830381600087803b15801561073d57600080fd5b505af1158015610751573d6000803e3d6000fd5b5050600254604051600093506001600160a01b037f00000000000000000000000000000000000000000000000000000000000000001692508381818185875af1925050503d80600081146107c1576040519150601f19603f3d011682016040523d82523d6000602084013e6107c6565b606091505b505090508061081e576002546040516388ca2dd160e01b81526001600160a01b037f0000000000000000000000000000000000000000000000000000000000000000166004820152602481019190915260440161039e565b600254600154600354600454604051908152600160381b9092046001600160a01b0316917f2b2b6e4d2c04cd042f5fb49ebe25d9518176619265c44683e96df259893213629060200160405180910390a4506102b46001600055565b60026000540361089d57604051633ee5aeb560e01b815260040160405180910390fd5b6002600055565b600065ffffffffffff8211156108d7576040516306dfcc6560e41b8152603060048201526024810183905260440161039e565b5090565b6000602082840312156108ed57600080fd5b81356001600160e01b03198116811461090557600080fd5b9392505050565b60008083601f84011261091e57600080fd5b50813567ffffffffffffffff81111561093657600080fd5b60208301915083602082850101111561094e57600080fd5b9250929050565b60008060008060006080868803121561096d57600080fd5b8535945060208601359350604086013567ffffffffffffffff81111561099257600080fd5b61099e8882890161090c565b96999598509660600135949350505050565b80356001600160a01b03811681146109c757600080fd5b919050565b60008083601f8401126109de57600080fd5b50813567ffffffffffffffff8111156109f657600080fd5b6020830191508360208260051b850101111561094e57600080fd5b60008060008060008060008060a0898b031215610a2d57600080fd5b610a36896109b0565b9750610a4460208a016109b0565b9650604089013567ffffffffffffffff80821115610a6157600080fd5b610a6d8c838d016109cc565b909850965060608b0135915080821115610a8657600080fd5b610a928c838d016109cc565b909650945060808b0135915080821115610aab57600080fd5b50610ab88b828c0161090c565b999c989b5096995094979396929594505050565b60008060008060008060a08789031215610ae557600080fd5b610aee876109b0565b9550610afc602088016109b0565b94506040870135935060608701359250608087013567ffffffffffffffff811115610b2657600080fd5b610b3289828a0161090c565b979a9699509497509295939492505050565b808201808211156101b157634e487b7160e01b600052601160045260246000fd5b6001600160a01b03878116825286166020820152604081018590526060810184905260a06080820181905281018290526000828460c0840137600060c0848401015260c0601f19601f850116830101905097965050505050505056fea2646970667358221220b4ccf6ff1c882e091f3487a22fad4b6c7e18c7ce2511cc437f4f0794ea4103f364736f6c63430008180033",
  "linkReferences": {},
  "deployedLinkReferences": {}
}