{
  "_format": "hh-sol-artifact-1",
  "contractName": "DeutchAuction",
  "sourceName": "contracts/use-cases/DeutchAuction.sol",
  "abi": [
    {
      "inputs": [
        {
          "internalType": "address",
          "name": "realEstateTokenAddress",
          "type": "address"
        }
      ],
      "stateMutability": "nonpayable",
      "type": "constructor"
    },
    {
      "inputs": [],
      "name": "AmountHigherThanSupply",
      "type": "error"
    },
    {
      "inputs": [],
      "name": "AmountToHigh",
      "type": "error"
    },
    {
      "inputs": [],
      "name": "DeutchAuction_AuctionAlreadyStarted",
      "type": "error"
    },
    {
      "inputs": [],
      "name": "DeutchAuction_BidNotHighEnough",
      "type": "error"
    },
    {
      "inputs": [],
      "name": "DeutchAuction_NewPriceHigherThanOldPrice",
      "type": "error"
    },
    {
      "inputs": [],
      "name": "DeutchAuction_NewPriceLowerThanReservePrice",
      "type": "error"
    },
    {
      "inputs": [],
      "name": "DeutchAuction_NoAuctionsInProgress",
      "type": "error"
    },
    {
      "inputs": [],
      "name": "DeutchAuction_OnlySellerCanCall",
      "type": "error"
    },
    {
      "inputs": [],
      "name": "DeutchAuction_OnlySellerOrAutomationCanCall",
      "type": "error"
    },
    {
      "inputs": [
        {
          "internalType": "uint48",
          "name": "timestamp",
          "type": "uint48"
        }
      ],
      "name": "DeutchAuction_ToEarlyToDecrementPrice",
      "type": "error"
    },
    {
      "inputs": [],
      "name": "DeutchAuction_TooEarlyToEnd",
      "type": "error"
    },
    {
      "inputs": [
        {
          "internalType": "address",
          "name": "recipient",
          "type": "address"
        },
        {
          "internalType": "uint256",
          "name": "amount",
          "type": "uint256"
        }
      ],
      "name": "FailedToSendEth",
      "type": "error"
    },
    {
      "inputs": [],
      "name": "OnlyRealEstateTokenSupported",
      "type": "error"
    },
    {
      "inputs": [],
      "name": "ReentrancyGuardReentrantCall",
      "type": "error"
    },
    {
      "inputs": [
        {
          "internalType": "uint8",
          "name": "bits",
          "type": "uint8"
        },
        {
          "internalType": "uint256",
          "name": "value",
          "type": "uint256"
        }
      ],
      "name": "SafeCastOverflowedUintDowncast",
      "type": "error"
    },
    {
      "anonymous": false,
      "inputs": [
        {
          "indexed": true,
          "internalType": "uint256",
          "name": "tokenId",
          "type": "uint256"
        },
        {
          "indexed": false,
          "internalType": "uint256",
          "name": "stillAvailableAmount",
          "type": "uint256"
        },
        {
          "indexed": true,
          "internalType": "uint256",
          "name": "clearPrice",
          "type": "uint256"
        }
      ],
      "name": "AuctionEnded",
      "type": "event"
    },
    {
      "anonymous": false,
      "inputs": [
        {
          "indexed": true,
          "internalType": "uint256",
          "name": "tokenId",
          "type": "uint256"
        },
        {
          "indexed": true,
          "internalType": "uint256",
          "name": "amount",
          "type": "uint256"
        },
        {
          "indexed": true,
          "internalType": "uint256",
          "name": "initiaPrice",
          "type": "uint256"
        }
      ],
      "name": "AuctionStarted",
      "type": "event"
    },
    {
      "anonymous": false,
      "inputs": [
        {
          "indexed": true,
          "internalType": "address",
          "name": "bidder",
          "type": "address"
        },
        {
          "indexed": true,
          "internalType": "uint256",
          "name": "amount",
          "type": "uint256"
        },
        {
          "indexed": true,
          "internalType": "uint256",
          "name": "availableAmount",
          "type": "uint256"
        }
      ],
      "name": "Bid",
      "type": "event"
    },
    {
      "anonymous": false,
      "inputs": [
        {
          "indexed": true,
          "internalType": "uint256",
          "name": "amount",
          "type": "uint256"
        }
      ],
      "name": "NewRoundPrice",
      "type": "event"
    },
    {
      "inputs": [
        {
          "internalType": "uint256",
          "name": "amount",
          "type": "uint256"
        }
      ],
      "name": "bid",
      "outputs": [],
      "stateMutability": "payable",
      "type": "function"
    },
    {
      "inputs": [],
      "name": "getTokenIdOnAuction",
      "outputs": [
        {
          "internalType": "uint256",
          "name": "",
          "type": "uint256"
        }
      ],
      "stateMutability": "view",
      "type": "function"
    },
    {
      "inputs": [
        {
          "internalType": "address",
          "name": "",
          "type": "address"
        },
        {
          "internalType": "address",
          "name": "",
          "type": "address"
        },
        {
          "internalType": "uint256[]",
          "name": "",
          "type": "uint256[]"
        },
        {
          "internalType": "uint256[]",
          "name": "",
          "type": "uint256[]"
        },
        {
          "internalType": "bytes",
          "name": "",
          "type": "bytes"
        }
      ],
      "name": "onERC1155BatchReceived",
      "outputs": [
        {
          "internalType": "bytes4",
          "name": "",
          "type": "bytes4"
        }
      ],
      "stateMutability": "view",
      "type": "function"
    },
    {
      "inputs": [
        {
          "internalType": "address",
          "name": "",
          "type": "address"
        },
        {
          "internalType": "address",
          "name": "",
          "type": "address"
        },
        {
          "internalType": "uint256",
          "name": "",
          "type": "uint256"
        },
        {
          "internalType": "uint256",
          "name": "",
          "type": "uint256"
        },
        {
          "internalType": "bytes",
          "name": "",
          "type": "bytes"
        }
      ],
      "name": "onERC1155Received",
      "outputs": [
        {
          "internalType": "bytes4",
          "name": "",
          "type": "bytes4"
        }
      ],
      "stateMutability": "view",
      "type": "function"
    },
    {
      "inputs": [
        {
          "internalType": "address",
          "name": "automationForwarderAddress",
          "type": "address"
        }
      ],
      "name": "setAutomationForwarder",
      "outputs": [],
      "stateMutability": "nonpayable",
      "type": "function"
    },
    {
      "inputs": [
        {
          "internalType": "uint256",
          "name": "newRoundPrice",
          "type": "uint256"
        }
      ],
      "name": "setRoundPrice",
      "outputs": [],
      "stateMutability": "nonpayable",
      "type": "function"
    },
    {
      "inputs": [
        {
          "internalType": "uint256",
          "name": "tokenId",
          "type": "uint256"
        },
        {
          "internalType": "bytes",
          "name": "data",
          "type": "bytes"
        },
        {
          "internalType": "uint256",
          "name": "amount",
          "type": "uint256"
        },
        {
          "internalType": "uint256",
          "name": "initialPrice",
          "type": "uint256"
        },
        {
          "internalType": "uint256",
          "name": "decrementStep",
          "type": "uint256"
        },
        {
          "internalType": "uint256",
          "name": "reservePrice",
          "type": "uint256"
        }
      ],
      "name": "startAuction",
      "outputs": [],
      "stateMutability": "nonpayable",
      "type": "function"
    },
    {
      "inputs": [
        {
          "internalType": "bytes4",
          "name": "interfaceId",
          "type": "bytes4"
        }
      ],
      "name": "supportsInterface",
      "outputs": [
        {
          "internalType": "bool",
          "name": "",
          "type": "bool"
        }
      ],
      "stateMutability": "view",
      "type": "function"
    },
    {
      "inputs": [],
      "name": "updateRoundPrice",
      "outputs": [],
      "stateMutability": "nonpayable",
      "type": "function"
    }
  ],
  "bytecode": "0x60c060405234801561001057600080fd5b506040516111a13803806111a183398101604081905261002f91610049565b6001600055336080526001600160a01b031660a052610079565b60006020828403121561005b57600080fd5b81516001600160a01b038116811461007257600080fd5b9392505050565b60805160a0516110b66100eb600039600081816106c701528181610771015281816108a6015281816109710152610a6c01526000818161020301528181610276015281816103d5015281816106480152818161079e0152818161090401528181610b900152610c1201526110b66000f3fe6080604052600436106100865760003560e01c806358bffd481161005957806358bffd481461010a578063bc197c811461012a578063d40d17bc14610163578063e8e2054914610183578063f23a6e61146101a157600080fd5b806301ffc9a71461008b57806302bbdf8f146100c057806321bcbeef146100d7578063454a2ab3146100f7575b600080fd5b34801561009757600080fd5b506100ab6100a6366004610cbc565b6101c1565b60405190151581526020015b60405180910390f35b3480156100cc57600080fd5b506100d56101f8565b005b3480156100e357600080fd5b506100d56100f2366004610ced565b6103ca565b6100d5610105366004610ced565b6104de565b34801561011657600080fd5b506100d5610125366004610d4f565b610635565b34801561013657600080fd5b5061014a610145366004610e1f565b610899565b6040516001600160e01b031990911681526020016100b7565b34801561016f57600080fd5b506100d561017e366004610eda565b6108f9565b34801561018f57600080fd5b506003546040519081526020016100b7565b3480156101ad57600080fd5b5061014a6101bc366004610ef5565b610964565b60006001600160e01b03198216630271189760e51b14806101f257506001600160e01b031982166301ffc9a760e01b145b92915050565b336001600160a01b037f00000000000000000000000000000000000000000000000000000000000000001614610241576040516388f651c360e01b815260040160405180910390fd5b600154600160a01b900460ff1661026b57604051631d5fa31b60e31b815260040160405180910390fd5b336001600160a01b037f000000000000000000000000000000000000000000000000000000000000000016148015906102af57506001546001600160a01b03163314155b156102cd576040516302bcc05d60e01b815260040160405180910390fd5b6102d6426109c2565b65ffffffffffff166102ea620151806109c2565b6006546102ff919065ffffffffffff16610f83565b65ffffffffffff16111561033f57610316426109c2565b60405163477e586f60e11b815265ffffffffffff90911660048201526024015b60405180910390fd5b6007546005546004546103529190610fa9565b1015610362576103606109f9565b565b6005546004546103729190610fa9565b60045561037e426109c2565b6006805465ffffffffffff191665ffffffffffff929092169190911790556004546040517fbec789847f80351cc99dbc6a93dde712c74d1f6c1f1ca30f724e22de1150f38490600090a2565b336001600160a01b037f00000000000000000000000000000000000000000000000000000000000000001614610413576040516388f651c360e01b815260040160405180910390fd5b600154600160a01b900460ff1661043d57604051631d5fa31b60e31b815260040160405180910390fd5b600454811115610460576040516302055bcd60e11b815260040160405180910390fd5b6007548110156104835760405163255e1aef60e01b815260040160405180910390fd5b6004819055610491426109c2565b6006805465ffffffffffff191665ffffffffffff929092169190911790556004546040517fbec789847f80351cc99dbc6a93dde712c74d1f6c1f1ca30f724e22de1150f38490600090a250565b6104e6610c92565b600154600160a01b900460ff1661051057604051631d5fa31b60e31b815260040160405180910390fd5b8060045461051e9190610fbc565b34101561053e57604051637aa9672b60e01b815260040160405180910390fd5b60025481111561056157604051630977594360e21b815260040160405180910390fd5b604080516060810182523381526020810183905260089181016105848434610fd3565b905281546001808201845560009384526020808520845160039094020180546001600160a01b0319166001600160a01b039094169390931783558301519082015560409091015160029182015580548392906105e1908490610fa9565b90915550506002546000036105f8576105f86109f9565b600254604051349033907f19421268847f42dd61705778018ddfc43bcdce8517e7a630acb12f122c70948190600090a46106326001600055565b50565b61063d610c92565b336001600160a01b037f00000000000000000000000000000000000000000000000000000000000000001614610686576040516388f651c360e01b815260040160405180910390fd5b600154600160a01b900460ff16156106b157604051635aff2d4f60e01b815260040160405180910390fd5b60405163bd85b03960e01b8152600481018890527f00000000000000000000000000000000000000000000000000000000000000006001600160a01b03169063bd85b03990602401602060405180830381865afa158015610716573d6000803e3d6000fd5b505050506040513d601f19601f8201168201806040525081019061073a9190610ff5565b84111561075a57604051635358f18f60e01b815260040160405180910390fd5b604051637921219560e11b81526001600160a01b037f0000000000000000000000000000000000000000000000000000000000000000169063f242432a906107d0907f00000000000000000000000000000000000000000000000000000000000000009030908c908a908d908d9060040161100e565b600060405180830381600087803b1580156107ea57600080fd5b505af11580156107fe573d6000803e3d6000fd5b50506001805460ff60a01b1916600160a01b179055505060038790556002849055600483905560058290556007819055610837426109c2565b6006805465ffffffffffff191665ffffffffffff9290921691909117905560025460405182919089907f44c53be110c6aa83aa83cd02e351ed172359268272ee1b5d31c0fe48db35c6c790600090a46108906001600055565b50505050505050565b6000336001600160a01b037f000000000000000000000000000000000000000000000000000000000000000016146108e457604051634f2a2fb560e11b815260040160405180910390fd5b5063bc197c8160e01b98975050505050505050565b336001600160a01b037f00000000000000000000000000000000000000000000000000000000000000001614610942576040516388f651c360e01b815260040160405180910390fd5b600180546001600160a01b0319166001600160a01b0392909216919091179055565b6000336001600160a01b037f000000000000000000000000000000000000000000000000000000000000000016146109af57604051634f2a2fb560e11b815260040160405180910390fd5b5063f23a6e6160e01b9695505050505050565b600065ffffffffffff8211156109f5576040516306dfcc6560e41b81526030600482015260248101839052604401610336565b5090565b610a01610c92565b600154600160a01b900460ff16610a2b57604051631d5fa31b60e31b815260040160405180910390fd5b6007546004541115610a505760405163bac3965960e01b815260040160405180910390fd5b6001805460ff60a01b1916905560005b600854811015610b7c577f00000000000000000000000000000000000000000000000000000000000000006001600160a01b031663f242432a3060088481548110610aad57610aad61106a565b60009182526020909120600391820201549054600880546001600160a01b039093169287908110610ae057610ae061106a565b600091825260208220600160039092020101546040516001600160e01b031960e088901b1681526001600160a01b0395861660048201529490931660248501526044840191909152606483019190915260a0608483015260a482015260c401600060405180830381600087803b158015610b5957600080fd5b505af1158015610b6d573d6000803e3d6000fd5b50505050806001019050610a60565b506004546040516000916001600160a01b037f000000000000000000000000000000000000000000000000000000000000000016918381818185875af1925050503d8060008114610be9576040519150601f19603f3d011682016040523d82523d6000602084013e610bee565b606091505b5050905080610c4657600480546040516388ca2dd160e01b81526001600160a01b037f000000000000000000000000000000000000000000000000000000000000000016928101929092526024820152604401610336565b6004546003547f02e3b2fea29cf6e561a51ffc4d68d233b0358b5aade05b3d98b7a7efbe75c8c1600254604051610c7f91815260200190565b60405180910390a3506103606001600055565b600260005403610cb557604051633ee5aeb560e01b815260040160405180910390fd5b6002600055565b600060208284031215610cce57600080fd5b81356001600160e01b031981168114610ce657600080fd5b9392505050565b600060208284031215610cff57600080fd5b5035919050565b60008083601f840112610d1857600080fd5b50813567ffffffffffffffff811115610d3057600080fd5b602083019150836020828501011115610d4857600080fd5b9250929050565b600080600080600080600060c0888a031215610d6a57600080fd5b87359650602088013567ffffffffffffffff811115610d8857600080fd5b610d948a828b01610d06565b989b909a509798604081013598606082013598506080820135975060a09091013595509350505050565b80356001600160a01b0381168114610dd557600080fd5b919050565b60008083601f840112610dec57600080fd5b50813567ffffffffffffffff811115610e0457600080fd5b6020830191508360208260051b8501011115610d4857600080fd5b60008060008060008060008060a0898b031215610e3b57600080fd5b610e4489610dbe565b9750610e5260208a01610dbe565b9650604089013567ffffffffffffffff80821115610e6f57600080fd5b610e7b8c838d01610dda565b909850965060608b0135915080821115610e9457600080fd5b610ea08c838d01610dda565b909650945060808b0135915080821115610eb957600080fd5b50610ec68b828c01610d06565b999c989b5096995094979396929594505050565b600060208284031215610eec57600080fd5b610ce682610dbe565b60008060008060008060a08789031215610f0e57600080fd5b610f1787610dbe565b9550610f2560208801610dbe565b94506040870135935060608701359250608087013567ffffffffffffffff811115610f4f57600080fd5b610f5b89828a01610d06565b979a9699509497509295939492505050565b634e487b7160e01b600052601160045260246000fd5b65ffffffffffff818116838216019080821115610fa257610fa2610f6d565b5092915050565b818103818111156101f2576101f2610f6d565b80820281158282048414176101f2576101f2610f6d565b600082610ff057634e487b7160e01b600052601260045260246000fd5b500490565b60006020828403121561100757600080fd5b5051919050565b6001600160a01b03878116825286166020820152604081018590526060810184905260a06080820181905281018290526000828460c0840137600060c0848401015260c0601f19601f8501168301019050979650505050505050565b634e487b7160e01b600052603260045260246000fdfea26469706673582212203b59fb3f7ac1e559f3c786747afde1c020c5a770731003bdbe3eccfa0e26cded64736f6c63430008180033",
  "linkReferences": {},
  "deployedLinkReferences": {}
}