{
  "_format": "hh-sol-artifact-1",
  "contractName": "CrossChainBurnAndMintERC1155",
  "sourceName": "contracts/CrossChainBurnAndMintERC1155.sol",
  "abi": [
    {
      "inputs": [
        {
          "internalType": "string",
          "name": "uri_",
          "type": "string"
        },
        {
          "internalType": "address",
          "name": "ccipRouterAddress",
          "type": "address"
        },
        {
          "internalType": "address",
          "name": "linkTokenAddress",
          "type": "address"
        },
        {
          "internalType": "uint64",
          "name": "currentChainSelector",
          "type": "uint64"
        }
      ],
      "stateMutability": "nonpayable",
      "type": "constructor"
    },
    {
      "inputs": [
        {
          "internalType": "address",
          "name": "target",
          "type": "address"
        }
      ],
      "name": "AddressEmptyCode",
      "type": "error"
    },
    {
      "inputs": [
        {
          "internalType": "address",
          "name": "account",
          "type": "address"
        }
      ],
      "name": "AddressInsufficientBalance",
      "type": "error"
    },
    {
      "inputs": [
        {
          "internalType": "uint64",
          "name": "chainSelector",
          "type": "uint64"
        }
      ],
      "name": "ChainNotEnabled",
      "type": "error"
    },
    {
      "inputs": [
        {
          "internalType": "address",
          "name": "msgSender",
          "type": "address"
        }
      ],
      "name": "ERC1155Core_CallerIsNotIssuerOrItself",
      "type": "error"
    },
    {
      "inputs": [
        {
          "internalType": "address",
          "name": "sender",
          "type": "address"
        },
        {
          "internalType": "uint256",
          "name": "balance",
          "type": "uint256"
        },
        {
          "internalType": "uint256",
          "name": "needed",
          "type": "uint256"
        },
        {
          "internalType": "uint256",
          "name": "tokenId",
          "type": "uint256"
        }
      ],
      "name": "ERC1155InsufficientBalance",
      "type": "error"
    },
    {
      "inputs": [
        {
          "internalType": "address",
          "name": "approver",
          "type": "address"
        }
      ],
      "name": "ERC1155InvalidApprover",
      "type": "error"
    },
    {
      "inputs": [
        {
          "internalType": "uint256",
          "name": "idsLength",
          "type": "uint256"
        },
        {
          "internalType": "uint256",
          "name": "valuesLength",
          "type": "uint256"
        }
      ],
      "name": "ERC1155InvalidArrayLength",
      "type": "error"
    },
    {
      "inputs": [
        {
          "internalType": "address",
          "name": "operator",
          "type": "address"
        }
      ],
      "name": "ERC1155InvalidOperator",
      "type": "error"
    },
    {
      "inputs": [
        {
          "internalType": "address",
          "name": "receiver",
          "type": "address"
        }
      ],
      "name": "ERC1155InvalidReceiver",
      "type": "error"
    },
    {
      "inputs": [
        {
          "internalType": "address",
          "name": "sender",
          "type": "address"
        }
      ],
      "name": "ERC1155InvalidSender",
      "type": "error"
    },
    {
      "inputs": [
        {
          "internalType": "address",
          "name": "operator",
          "type": "address"
        },
        {
          "internalType": "address",
          "name": "owner",
          "type": "address"
        }
      ],
      "name": "ERC1155MissingApprovalForAll",
      "type": "error"
    },
    {
      "inputs": [],
      "name": "FailedInnerCall",
      "type": "error"
    },
    {
      "inputs": [
        {
          "internalType": "address",
          "name": "owner",
          "type": "address"
        },
        {
          "internalType": "address",
          "name": "target",
          "type": "address"
        },
        {
          "internalType": "uint256",
          "name": "value",
          "type": "uint256"
        }
      ],
      "name": "FailedToWithdrawEth",
      "type": "error"
    },
    {
      "inputs": [
        {
          "internalType": "address",
          "name": "router",
          "type": "address"
        }
      ],
      "name": "InvalidRouter",
      "type": "error"
    },
    {
      "inputs": [
        {
          "internalType": "uint256",
          "name": "currentBalance",
          "type": "uint256"
        },
        {
          "internalType": "uint256",
          "name": "calculatedFees",
          "type": "uint256"
        }
      ],
      "name": "NotEnoughBalanceForFees",
      "type": "error"
    },
    {
      "inputs": [],
      "name": "NothingToWithdraw",
      "type": "error"
    },
    {
      "inputs": [
        {
          "internalType": "uint64",
          "name": "chainSelector",
          "type": "uint64"
        }
      ],
      "name": "OperationNotAllowedOnCurrentChain",
      "type": "error"
    },
    {
      "inputs": [],
      "name": "ReentrancyGuardReentrantCall",
      "type": "error"
    },
    {
      "inputs": [
        {
          "internalType": "address",
          "name": "token",
          "type": "address"
        }
      ],
      "name": "SafeERC20FailedOperation",
      "type": "error"
    },
    {
      "inputs": [
        {
          "internalType": "address",
          "name": "sender",
          "type": "address"
        }
      ],
      "name": "SenderNotEnabled",
      "type": "error"
    },
    {
      "anonymous": false,
      "inputs": [
        {
          "indexed": true,
          "internalType": "address",
          "name": "account",
          "type": "address"
        },
        {
          "indexed": true,
          "internalType": "address",
          "name": "operator",
          "type": "address"
        },
        {
          "indexed": false,
          "internalType": "bool",
          "name": "approved",
          "type": "bool"
        }
      ],
      "name": "ApprovalForAll",
      "type": "event"
    },
    {
      "anonymous": false,
      "inputs": [
        {
          "indexed": false,
          "internalType": "uint64",
          "name": "chainSelector",
          "type": "uint64"
        }
      ],
      "name": "ChainDisabled",
      "type": "event"
    },
    {
      "anonymous": false,
      "inputs": [
        {
          "indexed": false,
          "internalType": "uint64",
          "name": "chainSelector",
          "type": "uint64"
        },
        {
          "indexed": false,
          "internalType": "address",
          "name": "xNftAddress",
          "type": "address"
        },
        {
          "indexed": false,
          "internalType": "bytes",
          "name": "ccipExtraArgs",
          "type": "bytes"
        }
      ],
      "name": "ChainEnabled",
      "type": "event"
    },
    {
      "anonymous": false,
      "inputs": [
        {
          "indexed": false,
          "internalType": "address",
          "name": "from",
          "type": "address"
        },
        {
          "indexed": false,
          "internalType": "address",
          "name": "to",
          "type": "address"
        },
        {
          "indexed": false,
          "internalType": "uint256",
          "name": "id",
          "type": "uint256"
        },
        {
          "indexed": false,
          "internalType": "uint256",
          "name": "amount",
          "type": "uint256"
        },
        {
          "indexed": false,
          "internalType": "bytes",
          "name": "data",
          "type": "bytes"
        },
        {
          "indexed": false,
          "internalType": "uint64",
          "name": "sourceChainSelector",
          "type": "uint64"
        },
        {
          "indexed": false,
          "internalType": "uint64",
          "name": "destinationChainSelector",
          "type": "uint64"
        }
      ],
      "name": "CrossChainReceived",
      "type": "event"
    },
    {
      "anonymous": false,
      "inputs": [
        {
          "indexed": false,
          "internalType": "address",
          "name": "from",
          "type": "address"
        },
        {
          "indexed": false,
          "internalType": "address",
          "name": "to",
          "type": "address"
        },
        {
          "indexed": false,
          "internalType": "uint256",
          "name": "id",
          "type": "uint256"
        },
        {
          "indexed": false,
          "internalType": "uint256",
          "name": "amount",
          "type": "uint256"
        },
        {
          "indexed": false,
          "internalType": "bytes",
          "name": "data",
          "type": "bytes"
        },
        {
          "indexed": false,
          "internalType": "uint64",
          "name": "sourceChainSelector",
          "type": "uint64"
        },
        {
          "indexed": false,
          "internalType": "uint64",
          "name": "destinationChainSelector",
          "type": "uint64"
        }
      ],
      "name": "CrossChainSent",
      "type": "event"
    },
    {
      "anonymous": false,
      "inputs": [
        {
          "indexed": true,
          "internalType": "address",
          "name": "from",
          "type": "address"
        },
        {
          "indexed": true,
          "internalType": "address",
          "name": "to",
          "type": "address"
        }
      ],
      "name": "OwnershipTransferRequested",
      "type": "event"
    },
    {
      "anonymous": false,
      "inputs": [
        {
          "indexed": true,
          "internalType": "address",
          "name": "from",
          "type": "address"
        },
        {
          "indexed": true,
          "internalType": "address",
          "name": "to",
          "type": "address"
        }
      ],
      "name": "OwnershipTransferred",
      "type": "event"
    },
    {
      "anonymous": false,
      "inputs": [
        {
          "indexed": true,
          "internalType": "address",
          "name": "issuer",
          "type": "address"
        }
      ],
      "name": "SetIssuer",
      "type": "event"
    },
    {
      "anonymous": false,
      "inputs": [
        {
          "indexed": true,
          "internalType": "address",
          "name": "operator",
          "type": "address"
        },
        {
          "indexed": true,
          "internalType": "address",
          "name": "from",
          "type": "address"
        },
        {
          "indexed": true,
          "internalType": "address",
          "name": "to",
          "type": "address"
        },
        {
          "indexed": false,
          "internalType": "uint256[]",
          "name": "ids",
          "type": "uint256[]"
        },
        {
          "indexed": false,
          "internalType": "uint256[]",
          "name": "values",
          "type": "uint256[]"
        }
      ],
      "name": "TransferBatch",
      "type": "event"
    },
    {
      "anonymous": false,
      "inputs": [
        {
          "indexed": true,
          "internalType": "address",
          "name": "operator",
          "type": "address"
        },
        {
          "indexed": true,
          "internalType": "address",
          "name": "from",
          "type": "address"
        },
        {
          "indexed": true,
          "internalType": "address",
          "name": "to",
          "type": "address"
        },
        {
          "indexed": false,
          "internalType": "uint256",
          "name": "id",
          "type": "uint256"
        },
        {
          "indexed": false,
          "internalType": "uint256",
          "name": "value",
          "type": "uint256"
        }
      ],
      "name": "TransferSingle",
      "type": "event"
    },
    {
      "anonymous": false,
      "inputs": [
        {
          "indexed": false,
          "internalType": "string",
          "name": "value",
          "type": "string"
        },
        {
          "indexed": true,
          "internalType": "uint256",
          "name": "id",
          "type": "uint256"
        }
      ],
      "name": "URI",
      "type": "event"
    },
    {
      "inputs": [],
      "name": "acceptOwnership",
      "outputs": [],
      "stateMutability": "nonpayable",
      "type": "function"
    },
    {
      "inputs": [
        {
          "internalType": "address",
          "name": "account",
          "type": "address"
        },
        {
          "internalType": "uint256",
          "name": "id",
          "type": "uint256"
        }
      ],
      "name": "balanceOf",
      "outputs": [
        {
          "internalType": "uint256",
          "name": "",
          "type": "uint256"
        }
      ],
      "stateMutability": "view",
      "type": "function"
    },
    {
      "inputs": [
        {
          "internalType": "address[]",
          "name": "accounts",
          "type": "address[]"
        },
        {
          "internalType": "uint256[]",
          "name": "ids",
          "type": "uint256[]"
        }
      ],
      "name": "balanceOfBatch",
      "outputs": [
        {
          "internalType": "uint256[]",
          "name": "",
          "type": "uint256[]"
        }
      ],
      "stateMutability": "view",
      "type": "function"
    },
    {
      "inputs": [
        {
          "internalType": "address",
          "name": "account",
          "type": "address"
        },
        {
          "internalType": "uint256",
          "name": "id",
          "type": "uint256"
        },
        {
          "internalType": "uint256",
          "name": "amount",
          "type": "uint256"
        }
      ],
      "name": "burn",
      "outputs": [],
      "stateMutability": "nonpayable",
      "type": "function"
    },
    {
      "inputs": [
        {
          "internalType": "address",
          "name": "account",
          "type": "address"
        },
        {
          "internalType": "uint256[]",
          "name": "ids",
          "type": "uint256[]"
        },
        {
          "internalType": "uint256[]",
          "name": "amounts",
          "type": "uint256[]"
        }
      ],
      "name": "burnBatch",
      "outputs": [],
      "stateMutability": "nonpayable",
      "type": "function"
    },
    {
      "inputs": [
        {
          "components": [
            {
              "internalType": "bytes32",
              "name": "messageId",
              "type": "bytes32"
            },
            {
              "internalType": "uint64",
              "name": "sourceChainSelector",
              "type": "uint64"
            },
            {
              "internalType": "bytes",
              "name": "sender",
              "type": "bytes"
            },
            {
              "internalType": "bytes",
              "name": "data",
              "type": "bytes"
            },
            {
              "components": [
                {
                  "internalType": "address",
                  "name": "token",
                  "type": "address"
                },
                {
                  "internalType": "uint256",
                  "name": "amount",
                  "type": "uint256"
                }
              ],
              "internalType": "struct Client.EVMTokenAmount[]",
              "name": "destTokenAmounts",
              "type": "tuple[]"
            }
          ],
          "internalType": "struct Client.Any2EVMMessage",
          "name": "message",
          "type": "tuple"
        }
      ],
      "name": "ccipReceive",
      "outputs": [],
      "stateMutability": "nonpayable",
      "type": "function"
    },
    {
      "inputs": [
        {
          "internalType": "address",
          "name": "from",
          "type": "address"
        },
        {
          "internalType": "address",
          "name": "to",
          "type": "address"
        },
        {
          "internalType": "uint256",
          "name": "id",
          "type": "uint256"
        },
        {
          "internalType": "uint256",
          "name": "amount",
          "type": "uint256"
        },
        {
          "internalType": "bytes",
          "name": "data",
          "type": "bytes"
        },
        {
          "internalType": "uint64",
          "name": "destinationChainSelector",
          "type": "uint64"
        },
        {
          "internalType": "enum CrossChainBurnAndMintERC1155.PayFeesIn",
          "name": "payFeesIn",
          "type": "uint8"
        }
      ],
      "name": "crossChainTransferFrom",
      "outputs": [
        {
          "internalType": "bytes32",
          "name": "messageId",
          "type": "bytes32"
        }
      ],
      "stateMutability": "nonpayable",
      "type": "function"
    },
    {
      "inputs": [
        {
          "internalType": "uint64",
          "name": "chainSelector",
          "type": "uint64"
        }
      ],
      "name": "disableChain",
      "outputs": [],
      "stateMutability": "nonpayable",
      "type": "function"
    },
    {
      "inputs": [
        {
          "internalType": "uint64",
          "name": "chainSelector",
          "type": "uint64"
        },
        {
          "internalType": "address",
          "name": "xNftAddress",
          "type": "address"
        },
        {
          "internalType": "bytes",
          "name": "ccipExtraArgs",
          "type": "bytes"
        }
      ],
      "name": "enableChain",
      "outputs": [],
      "stateMutability": "nonpayable",
      "type": "function"
    },
    {
      "inputs": [
        {
          "internalType": "uint256",
          "name": "id",
          "type": "uint256"
        }
      ],
      "name": "exists",
      "outputs": [
        {
          "internalType": "bool",
          "name": "",
          "type": "bool"
        }
      ],
      "stateMutability": "view",
      "type": "function"
    },
    {
      "inputs": [
        {
          "internalType": "address",
          "name": "account",
          "type": "address"
        },
        {
          "internalType": "address",
          "name": "operator",
          "type": "address"
        }
      ],
      "name": "isApprovedForAll",
      "outputs": [
        {
          "internalType": "bool",
          "name": "",
          "type": "bool"
        }
      ],
      "stateMutability": "view",
      "type": "function"
    },
    {
      "inputs": [
        {
          "internalType": "address",
          "name": "_to",
          "type": "address"
        },
        {
          "internalType": "uint256",
          "name": "_id",
          "type": "uint256"
        },
        {
          "internalType": "uint256",
          "name": "_amount",
          "type": "uint256"
        },
        {
          "internalType": "bytes",
          "name": "_data",
          "type": "bytes"
        },
        {
          "internalType": "string",
          "name": "_tokenUri",
          "type": "string"
        }
      ],
      "name": "mint",
      "outputs": [],
      "stateMutability": "nonpayable",
      "type": "function"
    },
    {
      "inputs": [
        {
          "internalType": "address",
          "name": "_to",
          "type": "address"
        },
        {
          "internalType": "uint256[]",
          "name": "_ids",
          "type": "uint256[]"
        },
        {
          "internalType": "uint256[]",
          "name": "_amounts",
          "type": "uint256[]"
        },
        {
          "internalType": "bytes",
          "name": "_data",
          "type": "bytes"
        },
        {
          "internalType": "string[]",
          "name": "_tokenUris",
          "type": "string[]"
        }
      ],
      "name": "mintBatch",
      "outputs": [],
      "stateMutability": "nonpayable",
      "type": "function"
    },
    {
      "inputs": [],
      "name": "owner",
      "outputs": [
        {
          "internalType": "address",
          "name": "",
          "type": "address"
        }
      ],
      "stateMutability": "view",
      "type": "function"
    },
    {
      "inputs": [
        {
          "internalType": "uint64",
          "name": "destChainSelector",
          "type": "uint64"
        }
      ],
      "name": "s_chains",
      "outputs": [
        {
          "internalType": "address",
          "name": "xNftAddress",
          "type": "address"
        },
        {
          "internalType": "bytes",
          "name": "ccipExtraArgsBytes",
          "type": "bytes"
        }
      ],
      "stateMutability": "view",
      "type": "function"
    },
    {
      "inputs": [
        {
          "internalType": "address",
          "name": "from",
          "type": "address"
        },
        {
          "internalType": "address",
          "name": "to",
          "type": "address"
        },
        {
          "internalType": "uint256[]",
          "name": "ids",
          "type": "uint256[]"
        },
        {
          "internalType": "uint256[]",
          "name": "values",
          "type": "uint256[]"
        },
        {
          "internalType": "bytes",
          "name": "data",
          "type": "bytes"
        }
      ],
      "name": "safeBatchTransferFrom",
      "outputs": [],
      "stateMutability": "nonpayable",
      "type": "function"
    },
    {
      "inputs": [
        {
          "internalType": "address",
          "name": "from",
          "type": "address"
        },
        {
          "internalType": "address",
          "name": "to",
          "type": "address"
        },
        {
          "internalType": "uint256",
          "name": "id",
          "type": "uint256"
        },
        {
          "internalType": "uint256",
          "name": "value",
          "type": "uint256"
        },
        {
          "internalType": "bytes",
          "name": "data",
          "type": "bytes"
        }
      ],
      "name": "safeTransferFrom",
      "outputs": [],
      "stateMutability": "nonpayable",
      "type": "function"
    },
    {
      "inputs": [
        {
          "internalType": "address",
          "name": "operator",
          "type": "address"
        },
        {
          "internalType": "bool",
          "name": "approved",
          "type": "bool"
        }
      ],
      "name": "setApprovalForAll",
      "outputs": [],
      "stateMutability": "nonpayable",
      "type": "function"
    },
    {
      "inputs": [
        {
          "internalType": "address",
          "name": "_issuer",
          "type": "address"
        }
      ],
      "name": "setIssuer",
      "outputs": [],
      "stateMutability": "nonpayable",
      "type": "function"
    },
    {
      "inputs": [
        {
          "internalType": "bytes4",
          "name": "interfaceId",
          "type": "bytes4"
        }
      ],
      "name": "supportsInterface",
      "outputs": [
        {
          "internalType": "bool",
          "name": "",
          "type": "bool"
        }
      ],
      "stateMutability": "view",
      "type": "function"
    },
    {
      "inputs": [],
      "name": "totalSupply",
      "outputs": [
        {
          "internalType": "uint256",
          "name": "",
          "type": "uint256"
        }
      ],
      "stateMutability": "view",
      "type": "function"
    },
    {
      "inputs": [
        {
          "internalType": "uint256",
          "name": "id",
          "type": "uint256"
        }
      ],
      "name": "totalSupply",
      "outputs": [
        {
          "internalType": "uint256",
          "name": "",
          "type": "uint256"
        }
      ],
      "stateMutability": "view",
      "type": "function"
    },
    {
      "inputs": [
        {
          "internalType": "address",
          "name": "to",
          "type": "address"
        }
      ],
      "name": "transferOwnership",
      "outputs": [],
      "stateMutability": "nonpayable",
      "type": "function"
    },
    {
      "inputs": [
        {
          "internalType": "uint256",
          "name": "tokenId",
          "type": "uint256"
        }
      ],
      "name": "uri",
      "outputs": [
        {
          "internalType": "string",
          "name": "",
          "type": "string"
        }
      ],
      "stateMutability": "view",
      "type": "function"
    },
    {
      "inputs": [
        {
          "internalType": "address",
          "name": "_beneficiary",
          "type": "address"
        }
      ],
      "name": "withdraw",
      "outputs": [],
      "stateMutability": "nonpayable",
      "type": "function"
    },
    {
      "inputs": [
        {
          "internalType": "address",
          "name": "_beneficiary",
          "type": "address"
        },
        {
          "internalType": "address",
          "name": "_token",
          "type": "address"
        }
      ],
      "name": "withdrawToken",
      "outputs": [],
      "stateMutability": "nonpayable",
      "type": "function"
    }
  ],
  "bytecode": "0x60e06040523480156200001157600080fd5b50604051620036813803806200368183398101604081905262000034916200020d565b833380600083620000458162000104565b506001600160a01b038216620000a25760405162461bcd60e51b815260206004820152601860248201527f43616e6e6f7420736574206f776e657220746f207a65726f000000000000000060448201526064015b60405180910390fd5b600580546001600160a01b0319166001600160a01b0384811691909117909155811615620000d557620000d58162000116565b5050600160095550506001600160a01b03928316608052911660a0526001600160401b031660c0525062000477565b6002620001128282620003ab565b5050565b336001600160a01b03821603620001705760405162461bcd60e51b815260206004820152601760248201527f43616e6e6f74207472616e7366657220746f2073656c66000000000000000000604482015260640162000099565b600680546001600160a01b0319166001600160a01b03838116918217909255600554604051919216907fed8889f560326eb138920d842192f0eb3dd22b4f139c87a2c57538e05bae127890600090a350565b634e487b7160e01b600052604160045260246000fd5b80516001600160a01b0381168114620001f057600080fd5b919050565b80516001600160401b0381168114620001f057600080fd5b600080600080608085870312156200022457600080fd5b84516001600160401b03808211156200023c57600080fd5b818701915087601f8301126200025157600080fd5b815181811115620002665762000266620001c2565b604051601f8201601f19908116603f01168101908382118183101715620002915762000291620001c2565b81604052828152602093508a84848701011115620002ae57600080fd5b600091505b82821015620002d25784820184015181830185015290830190620002b3565b6000848483010152809850505050620002ed818801620001d8565b94505050620002ff60408601620001d8565b91506200030f60608601620001f5565b905092959194509250565b600181811c908216806200032f57607f821691505b6020821081036200035057634e487b7160e01b600052602260045260246000fd5b50919050565b601f821115620003a6576000816000526020600020601f850160051c81016020861015620003815750805b601f850160051c820191505b81811015620003a2578281556001016200038d565b5050505b505050565b81516001600160401b03811115620003c757620003c7620001c2565b620003df81620003d884546200031a565b8462000356565b602080601f831160018114620004175760008415620003fe5750858301515b600019600386901b1c1916600185901b178555620003a2565b600085815260208120601f198616915b82811015620004485788860151825594840194600190910190840162000427565b5085821015620004675787850151600019600388901b60f8161c191681555b5050505050600190811b01905550565b60805160a05160c051613194620004ed6000396000818161043301528181610c4a01528181610dbf01526113f901526000818161074b015281816108f00152818161097f0152610a5c01526000818161083301528181610a2d01528181610ae101528181610ba3015261126701526131946000f3fe608060405234801561001057600080fd5b506004361061018d5760003560e01c80635dc5ebdb116100de578063b942f8cb11610097578063e985e9c511610071578063e985e9c51461038f578063f242432a146103a2578063f2fde38b146103b5578063f5298aca146103c857600080fd5b8063b942f8cb14610349578063bd85b0391461035c578063c1341c4f1461037c57600080fd5b80635dc5ebdb146102cc5780636b20c454146102ed57806379ba50971461030057806385572ffb146103085780638da5cb5b1461031b578063a22cb4651461033657600080fd5b80632eb2c2d61161014b5780634e1273f4116101255780634e1273f4146102645780634f558e791461028457806351cff8d9146102a657806355cc4e57146102b957600080fd5b80632eb2c2d61461022b5780633aeac4e11461023e57806341eade461461025157600080fd5b8062fdd58e1461019257806301ffc9a7146101b85780630ce639c4146101db5780630e89341c146101f057806318160ddd14610210578063240b3b4914610218575b600080fd5b6101a56101a036600461234f565b6103db565b6040519081526020015b60405180910390f35b6101cb6101c6366004612391565b610403565b60405190151581526020016101af565b6101ee6101e936600461247f565b610428565b005b6102036101fe3660046124de565b610537565b6040516101af9190612547565b6004546101a5565b6101a561022636600461255a565b6105f5565b6101ee61023936600461268a565b610c9e565b6101ee61024c366004612737565b610d05565b6101ee61025f366004612770565b610db4565b61027761027236600461278b565b610e90565b6040516101af9190612888565b6101cb6102923660046124de565b600090815260036020526040902054151590565b6101ee6102b436600461289b565b610f5c565b6101ee6102c736600461289b565b611013565b6102df6102da366004612770565b611065565b6040516101af9291906128b8565b6101ee6102fb3660046128e4565b611114565b6101ee6111ae565b6101ee61031636600461294f565b61125c565b6005546040516001600160a01b0390911681526020016101af565b6101ee610344366004612997565b61144a565b6101ee6103573660046129c5565b611459565b6101a561036a3660046124de565b60009081526003602052604090205490565b6101ee61038a366004612af8565b611507565b6101cb61039d366004612737565b611566565b6101ee6103b0366004612b51565b611594565b6101ee6103c336600461289b565b6115f3565b6101ee6103d6366004612bb9565b611604565b6000818152602081815260408083206001600160a01b03861684529091529020545b92915050565b60006001600160e01b031982166385572ffb60e01b14806103fd57506103fd82611675565b6104306116c5565b827f00000000000000000000000000000000000000000000000000000000000000006001600160401b0316816001600160401b031603610493576040516340d8e3a160e01b81526001600160401b03821660048201526024015b60405180910390fd5b6040805180820182526001600160a01b03858116825260208083018681526001600160401b0389166000908152600a909252939020825181546001600160a01b0319169216919091178155915190919060018201906104f29082612c70565b509050507f59cc0b49d3359ac35e3872e99199469b6a1025c9a945cd9b6a411bffe337272d84848460405161052993929190612d2f565b60405180910390a150505050565b60008181526008602052604081208054606092919061055590612bee565b80601f016020809104026020016040519081016040528092919081815260200182805461058190612bee565b80156105ce5780601f106105a3576101008083540402835291602001916105ce565b820191906000526020600020905b8154815290600101906020018083116105b157829003601f168201915b5050505050905060008151116105ec576105e78361171a565b6105ee565b805b9392505050565b60006105ff6117ae565b6001600160401b0383166000908152600a602052604090205483906001600160a01b031661064b57604051630e19fdf760e11b81526001600160401b038216600482015260240161048a565b600061065688610537565b90506106638a8989611604565b6040805160a0810182526001600160401b0387166000908152600a602052918220546001600160a01b031660c08201528060e0810160405160208183030381529060405281526020018c8c8c8c8c886040516020016106c796959493929190612d6b565b60408051601f198184030181529190528152602001600060405190808252806020026020018201604052801561072357816020015b60408051808201909152600080825260208201528152602001906001900390816106fc5790505b508152602001600187600181111561073d5761073d612dc4565b1461074957600061076b565b7f00000000000000000000000000000000000000000000000000000000000000005b6001600160a01b03168152602001600a6000896001600160401b03166001600160401b0316815260200190815260200160002060010180546107ac90612bee565b80601f01602080910402602001604051908101604052809291908181526020018280546107d890612bee565b80156108255780601f106107fa57610100808354040283529160200191610825565b820191906000526020600020905b81548152906001019060200180831161080857829003601f168201915b5050505050815250905060007f00000000000000000000000000000000000000000000000000000000000000006001600160a01b03166320487ded88846040518363ffffffff1660e01b815260040161087f929190612dda565b602060405180830381865afa15801561089c573d6000803e3d6000fd5b505050506040513d601f19601f820116820180604052508101906108c09190612eb6565b905060018660018111156108d6576108d6612dc4565b03610b62576040516370a0823160e01b81523060048201527f00000000000000000000000000000000000000000000000000000000000000006001600160a01b0316906370a0823190602401602060405180830381865afa15801561093f573d6000803e3d6000fd5b505050506040513d601f19601f820116820180604052508101906109639190612eb6565b811115610a16576040516370a0823160e01b81523060048201527f00000000000000000000000000000000000000000000000000000000000000006001600160a01b0316906370a0823190602401602060405180830381865afa1580156109ce573d6000803e3d6000fd5b505050506040513d601f19601f820116820180604052508101906109f29190612eb6565b6040516328fdcaa160e01b815260048101919091526024810182905260440161048a565b60405163095ea7b360e01b81526001600160a01b037f000000000000000000000000000000000000000000000000000000000000000081166004830152602482018390527f0000000000000000000000000000000000000000000000000000000000000000169063095ea7b3906044016020604051808303816000875af1158015610aa5573d6000803e3d6000fd5b505050506040513d601f19601f82011682018060405250810190610ac99190612ecf565b506040516396f4e9f960e01b81526001600160a01b037f000000000000000000000000000000000000000000000000000000000000000016906396f4e9f990610b18908a908690600401612dda565b6020604051808303816000875af1158015610b37573d6000803e3d6000fd5b505050506040513d601f19601f82011682018060405250810190610b5b9190612eb6565b9450610c22565b47811115610b8c576040516328fdcaa160e01b81524760048201526024810182905260440161048a565b6040516396f4e9f960e01b81526001600160a01b037f000000000000000000000000000000000000000000000000000000000000000016906396f4e9f9908390610bdc908b908790600401612dda565b60206040518083038185885af1158015610bfa573d6000803e3d6000fd5b50505050506040513d601f19601f82011682018060405250810190610c1f9190612eb6565b94505b7f300e6c20d2e9d8db9b2df40ebce943d9dae3fa3a8eaec841a3d1cb9a1e8b6ad78c8c8c8c8c7f00000000000000000000000000000000000000000000000000000000000000008d604051610c7d9796959493929190612eec565b60405180910390a150505050610c936001600955565b979650505050505050565b336001600160a01b0386168114801590610cbf5750610cbd8682611566565b155b15610cf05760405163711bec9160e11b81526001600160a01b0380831660048301528716602482015260440161048a565b610cfd86868686866117d8565b505050505050565b610d0d6116c5565b6040516370a0823160e01b81523060048201526000906001600160a01b038316906370a0823190602401602060405180830381865afa158015610d54573d6000803e3d6000fd5b505050506040513d601f19601f82011682018060405250810190610d789190612eb6565b905080600003610d9b57604051630686827b60e51b815260040160405180910390fd5b610daf6001600160a01b038316848361183f565b505050565b610dbc6116c5565b807f00000000000000000000000000000000000000000000000000000000000000006001600160401b0316816001600160401b031603610e1a576040516340d8e3a160e01b81526001600160401b038216600482015260240161048a565b6001600160401b0382166000908152600a6020526040812080546001600160a01b031916815590610e4e60018301826122ec565b50506040516001600160401b03831681527f67e02000179a6045f4db8fb1b09f01e170b0347e0b698fc5112ce4d798ef19f69060200160405180910390a15050565b60608151835114610ec15781518351604051635b05999160e01b81526004810192909252602482015260440161048a565b600083516001600160401b03811115610edc57610edc6123ca565b604051908082528060200260200182016040528015610f05578160200160208202803683370190505b50905060005b8451811015610f5457602080820286010151610f2f906020808402870101516103db565b828281518110610f4157610f41612f4a565b6020908102919091010152600101610f0b565b509392505050565b610f646116c5565b476000819003610f8757604051630686827b60e51b815260040160405180910390fd5b6000826001600160a01b03168260405160006040518083038185875af1925050503d8060008114610fd4576040519150601f19603f3d011682016040523d82523d6000602084013e610fd9565b606091505b5050905080610daf57604051639d11f56360e01b81523360048201526001600160a01b03841660248201526044810183905260640161048a565b61101b6116c5565b600780546001600160a01b0319166001600160a01b0383169081179091556040517fd56ed7b1c1110348b1fbf418469f6fc4acc32d9b675e9e1e448cc19169a64ca090600090a250565b600a60205260009081526040902080546001820180546001600160a01b03909216929161109190612bee565b80601f01602080910402602001604051908101604052809291908181526020018280546110bd90612bee565b801561110a5780601f106110df5761010080835404028352916020019161110a565b820191906000526020600020905b8154815290600101906020018083116110ed57829003601f168201915b5050505050905082565b33301480159061112f57506007546001600160a01b03163314155b1561114f57604051637725137960e11b815233600482015260240161048a565b6001600160a01b038316331480159061116f575061116d8333611566565b155b156111a357335b60405163711bec9160e11b81526001600160a01b039182166004820152908416602482015260440161048a565b610daf838383611891565b6006546001600160a01b031633146112015760405162461bcd60e51b815260206004820152601660248201527526bab9ba10313290383937b837b9b2b21037bbb732b960511b604482015260640161048a565b600580546001600160a01b0319808216339081179093556006805490911690556040516001600160a01b03909116919082907f8be0079c531659141344cd1fd0a4f28419497f9722a3daafe3b4186f6b6457e090600090a350565b336001600160a01b037f000000000000000000000000000000000000000000000000000000000000000016146112a7576040516335fdcccd60e21b815233600482015260240161048a565b6112af6117ae565b6112bf6040820160208301612770565b6001600160401b0381166000908152600a60205260409020546001600160a01b031661130957604051630e19fdf760e11b81526001600160401b038216600482015260240161048a565b6113196040830160208401612770565b6113266040840184612f60565b810190611333919061289b565b6001600160401b0382166000908152600a60205260409020546001600160a01b038281169116146113825760405163baf46cd160e01b81526001600160a01b038216600482015260240161048a565b60006113946040860160208701612770565b9050600080808080806113aa60608c018c612f60565b8101906113b79190612fad565b9550955095509550955095506113d08585858585611507565b7f8a69e2b5fbcc69a1f5d6326fb26db5bc43cd18d09d2e79a48a50b77da16432f986868686868c7f000000000000000000000000000000000000000000000000000000000000000060405161142b9796959493929190612eec565b60405180910390a1505050505050505050506114476001600955565b50565b6114553383836118d7565b5050565b33301480159061147457506007546001600160a01b03163314155b1561149457604051637725137960e11b815233600482015260240161048a565b6114a08585858561196d565b60005b8451811015610cfd578181815181106114be576114be612f4a565b6020026020010151600860008784815181106114dc576114dc612f4a565b6020026020010151815260200190815260200160002090816114fe9190612c70565b506001016114a3565b33301480159061152257506007546001600160a01b03163314155b1561154257604051637725137960e11b815233600482015260240161048a565b61154e858585856119ab565b6000848152600860205260409020610cfd8282612c70565b6001600160a01b03918216600090815260016020908152604080832093909416825291909152205460ff1690565b336001600160a01b03861681148015906115b557506115b38682611566565b155b156115e65760405163711bec9160e11b81526001600160a01b0380831660048301528716602482015260440161048a565b610cfd8686868686611a08565b6115fb6116c5565b61144781611a96565b33301480159061161f57506007546001600160a01b03163314155b1561163f57604051637725137960e11b815233600482015260240161048a565b6001600160a01b038316331480159061165f575061165d8333611566565b155b1561166a5733611176565b610daf838383611b40565b60006001600160e01b03198216636cdb3d1360e11b14806116a657506001600160e01b031982166303a24d0760e21b145b806103fd57506301ffc9a760e01b6001600160e01b03198316146103fd565b6005546001600160a01b031633146117185760405162461bcd60e51b815260206004820152601660248201527527b7363c9031b0b63630b1363290313c9037bbb732b960511b604482015260640161048a565b565b60606002805461172990612bee565b80601f016020809104026020016040519081016040528092919081815260200182805461175590612bee565b80156117a25780601f10611777576101008083540402835291602001916117a2565b820191906000526020600020905b81548152906001019060200180831161178557829003601f168201915b50505050509050919050565b6002600954036117d157604051633ee5aeb560e01b815260040160405180910390fd5b6002600955565b6001600160a01b03841661180257604051632bfa23e760e11b81526000600482015260240161048a565b6001600160a01b03851661182b57604051626a0d4560e21b81526000600482015260240161048a565b6118388585858585611ba4565b5050505050565b604080516001600160a01b038416602482015260448082018490528251808303909101815260649091019091526020810180516001600160e01b031663a9059cbb60e01b179052610daf908490611bf7565b6001600160a01b0383166118ba57604051626a0d4560e21b81526000600482015260240161048a565b610daf836000848460405180602001604052806000815250611ba4565b6001600160a01b0382166119005760405162ced3e160e81b81526000600482015260240161048a565b6001600160a01b03838116600081815260016020908152604080832094871680845294825291829020805460ff191686151590811790915591519182527f17307eab39ab6107e8899845ad3d59bd9653f200f220920489ca2b5937696c31910160405180910390a3505050565b6001600160a01b03841661199757604051632bfa23e760e11b81526000600482015260240161048a565b6119a5600085858585611ba4565b50505050565b6001600160a01b0384166119d557604051632bfa23e760e11b81526000600482015260240161048a565b60408051600180825260208201869052818301908152606082018590526080820190925290610cfd600087848487611ba4565b6001600160a01b038416611a3257604051632bfa23e760e11b81526000600482015260240161048a565b6001600160a01b038516611a5b57604051626a0d4560e21b81526000600482015260240161048a565b60408051600180825260208201869052818301908152606082018590526080820190925290611a8d8787848487611ba4565b50505050505050565b336001600160a01b03821603611aee5760405162461bcd60e51b815260206004820152601760248201527f43616e6e6f74207472616e7366657220746f2073656c66000000000000000000604482015260640161048a565b600680546001600160a01b0319166001600160a01b03838116918217909255600554604051919216907fed8889f560326eb138920d842192f0eb3dd22b4f139c87a2c57538e05bae127890600090a350565b6001600160a01b038316611b6957604051626a0d4560e21b81526000600482015260240161048a565b604080516001808252602082018590528183019081526060820184905260a08201909252600060808201818152919291611838918791859085905b611bb085858585611c5a565b6001600160a01b038416156118385782513390600103611be95760208481015190840151611be2838989858589611da0565b5050610cfd565b610cfd818787878787611ec4565b6000611c0c6001600160a01b03841683611fad565b90508051600014158015611c31575080806020019051810190611c2f9190612ecf565b155b15610daf57604051635274afe760e01b81526001600160a01b038416600482015260240161048a565b611c6684848484611fbb565b6001600160a01b038416611d10576000805b8351811015611cf6576000838281518110611c9557611c95612f4a565b602002602001015190508060036000878581518110611cb657611cb6612f4a565b602002602001015181526020019081526020016000206000828254611cdb9190613047565b90915550611ceb90508184613047565b925050600101611c78565b508060046000828254611d099190613047565b9091555050505b6001600160a01b0383166119a5576000805b8351811015611d8f576000838281518110611d3f57611d3f612f4a565b602002602001015190508060036000878581518110611d6057611d60612f4a565b602090810291909101810151825281019190915260400160002080549190910390559190910190600101611d22565b506004805491909103905550505050565b6001600160a01b0384163b15610cfd5760405163f23a6e6160e01b81526001600160a01b0385169063f23a6e6190611de49089908990889088908890600401613068565b6020604051808303816000875af1925050508015611e1f575060408051601f3d908101601f19168201909252611e1c918101906130a2565b60015b611e88573d808015611e4d576040519150601f19603f3d011682016040523d82523d6000602084013e611e52565b606091505b508051600003611e8057604051632bfa23e760e11b81526001600160a01b038616600482015260240161048a565b805181602001fd5b6001600160e01b0319811663f23a6e6160e01b14611a8d57604051632bfa23e760e11b81526001600160a01b038616600482015260240161048a565b6001600160a01b0384163b15610cfd5760405163bc197c8160e01b81526001600160a01b0385169063bc197c8190611f0890899089908890889088906004016130bf565b6020604051808303816000875af1925050508015611f43575060408051601f3d908101601f19168201909252611f40918101906130a2565b60015b611f71573d808015611e4d576040519150601f19603f3d011682016040523d82523d6000602084013e611e52565b6001600160e01b0319811663bc197c8160e01b14611a8d57604051632bfa23e760e11b81526001600160a01b038616600482015260240161048a565b60606105ee838360006121cf565b8051825114611fea5781518151604051635b05999160e01b81526004810192909252602482015260440161048a565b3360005b83518110156120f0576020818102858101820151908501909101516001600160a01b038816156120a1576000828152602081815260408083206001600160a01b038c1684529091529020548181101561207a576040516303dee4c560e01b81526001600160a01b038a16600482015260248101829052604481018390526064810184905260840161048a565b6000838152602081815260408083206001600160a01b038d16845290915290209082900390555b6001600160a01b038716156120e6576000828152602081815260408083206001600160a01b038b168452909152812080548392906120e0908490613047565b90915550505b5050600101611fee565b5082516001036121715760208301516000906020840151909150856001600160a01b0316876001600160a01b0316846001600160a01b03167fc3d58168c5ae7397731d063d5bbf3d657854427343f4c083240f7aacaa2d0f628585604051612162929190918252602082015260400190565b60405180910390a45050611838565b836001600160a01b0316856001600160a01b0316826001600160a01b03167f4a39dc06d4c0dbc64b70af90fd698a233a518aa5d07e595d983b8c0526c8f7fb86866040516121c092919061311d565b60405180910390a45050505050565b6060814710156121f45760405163cd78605960e01b815230600482015260240161048a565b600080856001600160a01b031684866040516122109190613142565b60006040518083038185875af1925050503d806000811461224d576040519150601f19603f3d011682016040523d82523d6000602084013e612252565b606091505b509150915061226286838361226c565b9695505050505050565b60608261227c576105e7826122c3565b815115801561229357506001600160a01b0384163b155b156122bc57604051639996b31560e01b81526001600160a01b038516600482015260240161048a565b50806105ee565b8051156122d35780518082602001fd5b604051630a12f52160e11b815260040160405180910390fd5b5080546122f890612bee565b6000825580601f10612308575050565b601f01602090049060005260206000209081019061144791905b808211156123365760008155600101612322565b5090565b6001600160a01b038116811461144757600080fd5b6000806040838503121561236257600080fd5b823561236d8161233a565b946020939093013593505050565b6001600160e01b03198116811461144757600080fd5b6000602082840312156123a357600080fd5b81356105ee8161237b565b80356001600160401b03811681146123c557600080fd5b919050565b634e487b7160e01b600052604160045260246000fd5b604051601f8201601f191681016001600160401b0381118282101715612408576124086123ca565b604052919050565b600082601f83011261242157600080fd5b81356001600160401b0381111561243a5761243a6123ca565b61244d601f8201601f19166020016123e0565b81815284602083860101111561246257600080fd5b816020850160208301376000918101602001919091529392505050565b60008060006060848603121561249457600080fd5b61249d846123ae565b925060208401356124ad8161233a565b915060408401356001600160401b038111156124c857600080fd5b6124d486828701612410565b9150509250925092565b6000602082840312156124f057600080fd5b5035919050565b60005b838110156125125781810151838201526020016124fa565b50506000910152565b600081518084526125338160208601602086016124f7565b601f01601f19169290920160200192915050565b6020815260006105ee602083018461251b565b600080600080600080600060e0888a03121561257557600080fd5b87356125808161233a565b965060208801356125908161233a565b9550604088013594506060880135935060808801356001600160401b038111156125b957600080fd5b6125c58a828b01612410565b9350506125d460a089016123ae565b915060c0880135600281106125e857600080fd5b8091505092959891949750929550565b60006001600160401b03821115612611576126116123ca565b5060051b60200190565b600082601f83011261262c57600080fd5b8135602061264161263c836125f8565b6123e0565b8083825260208201915060208460051b87010193508684111561266357600080fd5b602086015b8481101561267f5780358352918301918301612668565b509695505050505050565b600080600080600060a086880312156126a257600080fd5b85356126ad8161233a565b945060208601356126bd8161233a565b935060408601356001600160401b03808211156126d957600080fd5b6126e589838a0161261b565b945060608801359150808211156126fb57600080fd5b61270789838a0161261b565b9350608088013591508082111561271d57600080fd5b5061272a88828901612410565b9150509295509295909350565b6000806040838503121561274a57600080fd5b82356127558161233a565b915060208301356127658161233a565b809150509250929050565b60006020828403121561278257600080fd5b6105ee826123ae565b6000806040838503121561279e57600080fd5b82356001600160401b03808211156127b557600080fd5b818501915085601f8301126127c957600080fd5b813560206127d961263c836125f8565b82815260059290921b840181019181810190898411156127f857600080fd5b948201945b8386101561281f5785356128108161233a565b825294820194908201906127fd565b9650508601359250508082111561283557600080fd5b506128428582860161261b565b9150509250929050565b60008151808452602080850194506020840160005b8381101561287d57815187529582019590820190600101612861565b509495945050505050565b6020815260006105ee602083018461284c565b6000602082840312156128ad57600080fd5b81356105ee8161233a565b6001600160a01b03831681526040602082018190526000906128dc9083018461251b565b949350505050565b6000806000606084860312156128f957600080fd5b83356129048161233a565b925060208401356001600160401b038082111561292057600080fd5b61292c8783880161261b565b9350604086013591508082111561294257600080fd5b506124d48682870161261b565b60006020828403121561296157600080fd5b81356001600160401b0381111561297757600080fd5b820160a081850312156105ee57600080fd5b801515811461144757600080fd5b600080604083850312156129aa57600080fd5b82356129b58161233a565b9150602083013561276581612989565b600080600080600060a086880312156129dd57600080fd5b85356129e88161233a565b94506020868101356001600160401b0380821115612a0557600080fd5b612a118a838b0161261b565b96506040890135915080821115612a2757600080fd5b612a338a838b0161261b565b95506060890135915080821115612a4957600080fd5b612a558a838b01612410565b94506080890135915080821115612a6b57600080fd5b818901915089601f830112612a7f57600080fd5b8135612a8d61263c826125f8565b81815260059190911b8301840190848101908c831115612aac57600080fd5b8585015b83811015612ae457803585811115612ac85760008081fd5b612ad68f89838a0101612410565b845250918601918601612ab0565b508096505050505050509295509295909350565b600080600080600060a08688031215612b1057600080fd5b8535612b1b8161233a565b9450602086013593506040860135925060608601356001600160401b0380821115612b4557600080fd5b61270789838a01612410565b600080600080600060a08688031215612b6957600080fd5b8535612b748161233a565b94506020860135612b848161233a565b9350604086013592506060860135915060808601356001600160401b03811115612bad57600080fd5b61272a88828901612410565b600080600060608486031215612bce57600080fd5b8335612bd98161233a565b95602085013595506040909401359392505050565b600181811c90821680612c0257607f821691505b602082108103612c2257634e487b7160e01b600052602260045260246000fd5b50919050565b601f821115610daf576000816000526020600020601f850160051c81016020861015612c515750805b601f850160051c820191505b81811015610cfd57828155600101612c5d565b81516001600160401b03811115612c8957612c896123ca565b612c9d81612c978454612bee565b84612c28565b602080601f831160018114612cd25760008415612cba5750858301515b600019600386901b1c1916600185901b178555610cfd565b600085815260208120601f198616915b82811015612d0157888601518255948401946001909101908401612ce2565b5085821015612d1f5787850151600019600388901b60f8161c191681555b5050505050600190811b01905550565b6001600160401b03841681526001600160a01b0383166020820152606060408201819052600090612d629083018461251b565b95945050505050565b6001600160a01b03878116825286166020820152604081018590526060810184905260c060808201819052600090612da59083018561251b565b82810360a0840152612db7818561251b565b9998505050505050505050565b634e487b7160e01b600052602160045260246000fd5b600060406001600160401b03851683526020604081850152845160a06040860152612e0860e086018261251b565b905081860151603f1980878403016060880152612e25838361251b565b6040890151888203830160808a01528051808352908601945060009350908501905b80841015612e7957845180516001600160a01b0316835286015186830152938501936001939093019290860190612e47565b5060608901516001600160a01b031660a08901526080890151888203830160c08a01529550612ea8818761251b565b9a9950505050505050505050565b600060208284031215612ec857600080fd5b5051919050565b600060208284031215612ee157600080fd5b81516105ee81612989565b6001600160a01b03888116825287166020820152604081018690526060810185905260e060808201819052600090612f269083018661251b565b6001600160401b0394851660a08401529290931660c0909101529695505050505050565b634e487b7160e01b600052603260045260246000fd5b6000808335601e19843603018112612f7757600080fd5b8301803591506001600160401b03821115612f9157600080fd5b602001915036819003821315612fa657600080fd5b9250929050565b60008060008060008060c08789031215612fc657600080fd5b8635612fd18161233a565b95506020870135612fe18161233a565b9450604087013593506060870135925060808701356001600160401b038082111561300b57600080fd5b6130178a838b01612410565b935060a089013591508082111561302d57600080fd5b5061303a89828a01612410565b9150509295509295509295565b808201808211156103fd57634e487b7160e01b600052601160045260246000fd5b6001600160a01b03868116825285166020820152604081018490526060810183905260a060808201819052600090610c939083018461251b565b6000602082840312156130b457600080fd5b81516105ee8161237b565b6001600160a01b0386811682528516602082015260a0604082018190526000906130eb9083018661284c565b82810360608401526130fd818661284c565b90508281036080840152613111818561251b565b98975050505050505050565b604081526000613130604083018561284c565b8281036020840152612d62818561284c565b600082516131548184602087016124f7565b919091019291505056fea2646970667358221220e58b6358f9b9b455c3220d88871a7cdbbd99d436ecb5aac2d50c062dbb932a7c64736f6c63430008180033",
  "linkReferences": {},
  "deployedLinkReferences": {}
}